:020000041000EA
:10000000002008205D0100101301001015010010F0
:100010001101001011010010110100101101001058
:100020001101001011010010110100101701001042
:100030001101001011010010190100101B01001026
:100040001D0100101D0100101D0100101D010010F8
:100050001D0100101D0100101D0100101D010010E8
:100060001D0100101D0100101D0100101D010010D8
:100070001D0100101D0100101D0100101D010010C8
:100080001D0100101D0100101D0100101D010010B8
:100090001D0100101D0100101D0100101D010010A8
:1000A0001D0100101D0100101D0100101D01001098
:1000B0001D0100101D0100101D0100101D01001088
:1000C0001D0100101D0100101D0100101D01001078
:1000D0001D0100101D0100101D0100101D01001068
:1000E0001D0100101D0100101D0100101D01001058
:1000F0001D0100101D0100101D0100101D01001048
:100100001D0100101D0100101D0100101D01001037
:1001100000BE00BE00BE00BE00BE00BEEFF3058004
:10012000103800BEF2EB887118830110388301107B
:10013000A801001090A31AE7D3DEFFFF42012110AF
:10014000FF01000014A90100793512AB4FF0000047
:100150002049086006C881F3088810474FF05040D6
:10016000006810B14FF00000F2E70FA40ECC002998
:1001700002D000F015F8F9E71749184A002000E00E
:1001800001C19142FCD1002080F30A8814498847BC
:10019000144988471449884700BEFDE701C901C2D8
:1001A0009A42FBD3704700BF388301101001002032
:1001B000242800204CAA011000000820000008207C
:1001C0004CAA0110001008200010082000000000B8
:1001D0007047000008ED00E024280020FC8100208A
:1001E000913500104104001089350010F8B500BFAA
:1001F00010B5054C237833B9044B13B1044800E023
:1002000000BF0123237010BD886F00200000000094
:10021000406A011008B5034B1BB10349034800E0D5
:1002200000BF08BD000000008C6F0020406A011074
:100230002DE9F0411E4F88B03D4602A802AC07F000
:10024000CFF80FCC0FC500221A4E20681A4C3B463F
:1002500011462860304606F0BDFF3346174A18495C
:10026000204607F001F807F0B9FF21460246154B7A
:10027000154807F033F807F0C9FFDFF86080134D29
:10028000024621464046124B07F05CF83B46314699
:100290002846012206F03AFD0023414600932846F5
:1002A0000C4B0D4A06F092FD08B0BDE8F08100BF8E
:1002B0001C8000203C800020088000206481011008
:1002C000406A01104C6A0110F0800020787F002005
:1002D0005C6A0110BD03001010800020188000200F
:1002E00008B50C4B0C49186806F03CF803210420B3
:1002F00000F062F90321052000F05EF900220121DF
:10030000042000F075F9BDE8084000220121052015
:1003100000F06EB9A01A0020801A060070B5002403
:10032000214B224D196886B00E0CADF81410032332
:1003300048212868009405AA8DF8166006F038F860
:10034000032805D01A4803F0CDFA204606B070BD48
:10035000012001F05BF80123482128680DF10F020C
:1003600000938DF80F4006F023F8012805D01148BE
:1003700003F0B8FA204606B070BD02234821286871
:10038000009404AA06F022F8022808D19DF8110072
:100390009DF8104040EA042420B206B070BD064823
:1003A00003F0A0FA2046D1E7E86A0110A01A002065
:1003B0006C6A01108C6A0110C06A01102DE9F041CD
:1003C000D0E9006784B0FFF7A9FF07EE900A9FED20
:1003D000157AF8EEE77A67EE877A17EE900A16F04C
:1003E0007FFA04460D46DFF8508080214046CDE973
:1003F0000067CDE902450C4A03F02CF880230B4935
:100400000022C1E900800A488B6006F0C5F8324638
:100410003B46CDE90045074803F0E4FA04B0BDE8E7
:10042000F08100BF6F120339EC6A011030800020A8
:10043000F0800020286B0110708000200000000078
:10044000D0B582B003F0C0F9FFF74AFF124A134B50
:100450000021CDE900320120114B124A07F06EF85D
:1004600078214FF47A7007F083F858B908A7D7E9D4
:100470000067FFF7DDFE0C4C32463B46204606F097
:1004800025FDF9E7094803F02DFA012002B0D0BD9F
:1004900000E1F50500000000450500100905001009
:1004A00005050010E9040010787F0020546B01104E
:1004B00070B50C4601F046F800230A4A06460D4680
:1004C00016F0F6F90023C4E90001064A3046294631
:1004D00016F0EEF94FF47A7303FB02F20020A260EB
:1004E00070BD00BF40420F0010B5054C23780BB91A
:1004F000012010BD03F068F900230120237010BD16
:10050000A41A0020012070472DE9F0479046AAB1B7
:100510008F189946013F4C1EC1F1010601E0BC4213
:100520000CD006EB040A14F8015F284603F096F994
:100530008542F4D00123D04689F800304046BDE81A
:10054000F08700BF2DE9F04F924683B001928846B4
:10055000994600F0F7FF524642B34FF47A7303FB1B
:1005600009F908F1FF3B10EB090641EBE977C8F107
:100570000108DA4408E0204603F028F9831C0ED075
:100580000BF8010FD34511D000F0DCFF341A67EBF4
:100590000105002C75F1000308EB0B09EBDA0123D0
:1005A00048460C9A137003B0BDE8F08FDDF8049054
:1005B000484603B0BDE8F08F30B44FF480750B4B64
:1005C000C20053F8204003EB800084F0400402F1A5
:1005D000804303F5203304F0C00200F5805400F599
:1005E000405022605960056030BC70470480034071
:1005F000002915BF082300230C210421002A08BF6D
:100600001946064B53F8202003EB80004A4002F0C5
:100610000C0200F580531A60704700BF048003404D
:100620000FB400B583B0049C074803F05BF93CB1FC
:1006300005A92046019102F043FF044803F052F956
:10064000012002F055FF00BF706B011008820110FD
:10065000F8B5EFF3108C72B60F4ED6E8CF5F0124D9
:10066000002DFAD1C6E8454F002DF6D1BFF35F8FBC
:100670000124CF08C55D01F0070304FA03F315EA6E
:10068000030406D12B43C355C6E88F4F8CF3108863
:10069000F8BD1046FFF7C4FFFF800020F8B5EFF368
:1006A000108C72B6204FD7E8CF5F0124002DFAD10D
:1006B000C7E8454F002DF6D1BFF35F8F9A4222D88D
:1006C0000126D508455D02F0070406FA04F4254228
:1006D00000EBD20E0AD122E0D408055D02F0070437
:1006E00006FA04F4254200EBD20E18D001329342F0
:1006F000F2D24FF0FF300023C7E88F3F8CF3108811
:10070000984207DBF8BD0023C7E88F3F8CF31088C1
:100710004FF0FF300029F5D00698FFF781FF2C43FA
:1007200010468EF80040E6E7FF800020044A10786B
:10073000431CDBB2172B88BF10231370704700BF18
:10074000A51A002000B5064B83B00146009318227D
:100750001F230448FFF7A2FF03B05DF804FB00BFAE
:10076000806B0110D4740020024A136843F00053D8
:100770001360704708E000E00021044B03F1200201
:10078000C3E88F1F01339342FAD17047F4800020F1
:100790004FF0803330B40A480A490B4A0B4D0C4CD9
:1007A00003600B6013602B60236043614B615361F6
:1007B0006B616361836230BC8B629362704700BF80
:1007C00000E400E004E400E008E400E00CE400E001
:1007D00010E400E0012300F01F029340400941B102
:1007E000800000F1604000F56140C0F88031036096
:1007F0007047024A203042F82030704700E100E0A4
:100800000123064A410952F8212000F01F0003FA93
:1008100000F0104214BF18460020704700E100E0CD
:1008200001224309044900F01F00403302FA00F09E
:1008300041F82300704700BF00E100E0054B103095
:100840009A68054B52F82000C01A2F288CBF002050
:100850000120704700ED00E0A81A0020F8B50D4611
:10086000EFF3108772B6124ED6E8CF2F0123002A7D
:10087000FAD1C6E8423F002AF6D1BFF35F8F0D4B95
:1008800000F110049B680C4A53F82430934203D0C3
:10089000994201D001F014F8064B9B6843F82450AC
:1008A000BFF35F8F0023C6E88F3F87F31088F8BD42
:1008B000FD80002000ED00E01D0100102DE9F04F4B
:1008C00083B0074615460191EFF3108A72B6DFF840
:1008D000E091D9E8CF2F0123002AFAD1C9E8423F9D
:1008E000002AF6D1BFF35F8F6B4E96F90020002AE5
:1008F000C0F2AA80694C02EB420304EB83039979AE
:10090000674B31709B68103753F8270002EB4206A3
:10091000031B2F2B04EB86084FEA86062FD9614B69
:10092000984240F0AF80604BB21C2244043B9B1ABB
:10093000C3F34A036FEAC3434FF421406FEAD34342
:100940004BF60151FF22A053A8F80230019B48F05A
:10095000010088F80750C8F80830A8F8041088F893
:1009600006204F4B9B6843F82700BFF35F8F00239F
:10097000C9E88F3F8AF3108803B0BDE8F08F20F0FC
:100980000101CB79AB4237D84FF4214B4AF6AA206C
:10099000454BB21CA3F1040CA318ACEB0303321DAE
:1009A000DFF810C104EB020EC3F34A030A1F43EA47
:1009B0000C03A2EB0E0224F806B0C2F34A02A8F818
:1009C00002303A4E019B42EA0C02C8F80830A8F8FF
:1009D000042003460A46121B524153431B0D88F85C
:1009E000075088F8063048F001000E60B9E79CF81F
:1009F00007C0AC452DD9714691F9063003EB430C85
:100A000004EB8C0C002BE646F1DA4BF6015C01F1AD
:100A1000040BA8F1040EAEEB0B0ECEF34A0E6FEAF8
:100A2000CE4E6FEADE4EDFF884B08A71A1F804E0A2
:100A300044F806B088F80630019BA8F804C088F88E
:100A40000750C8F808308CE700F03AFF96F900200C
:100A500050E7B1F804C001F1040B5FEA4C5C14D418
:100A60006FF0070E4FEA6C5C0CF1020CAEEB060E59
:100A70000BEB4C0CAEEB040EF444CCF34A0C4CF4F0
:100A8000604CC6E700F01CFF4DE70CF5FF1C0CF5B1
:100A9000FF5C0CF11F0CE3E7727F0020A81A002016
:100AA00000ED00E01D010010D81A00200148804729
:100AB000FD80002000E0FFFFF0B5EFF30585EDB20B
:100AC000EFF3108772B62649D1E8CF2F0123002A11
:100AD000FAD1C1E8423F002AF6D1BFF35F8F214E21
:100AE00040F0010CB2684AF6AA2352F825E0044609
:100AF0001D4AA41A644163431B0DE6455BB21BD03B
:100B000092F906409C421CD092F912409C4223D09C
:100B100092F91E409C4221D092F92A409C4208BF83
:100B200003240FD0114A0024157813708571C1E891
:100B30008F4F87F31088F0BDB2680D4C42F8254006
:100B4000F0E70024FF264BF6015504EB440402EBCA
:100B5000840296719580E5E70124F3E70224F1E72A
:100B6000FD80002000ED00E0A81A0020727F002028
:100B70001D01001000B5084B83B001460093002210
:100B800005230648FFF78AFD0028A8BFC0F13300FF
:100B900003B05DF804FB00BF9C6B0110767F002062
:100BA000014B194401607047F4800020F8B5124DE4
:100BB000124EB5421FD22C462368FF277BB1FFF7A8
:100BC000B5FD01462846FFF7EBFFA780BFF35F8F17
:100BD0000834B4420FD223682546002BEFD1FFF72B
:100BE000A5FD01462846FFF7DBFF2771BFF35F8FA6
:100BF0000834B442EFD3F8BD1C280020242800207C
:100C000010B50446FFF792FD01462046FFF7C8FFE6
:100C1000FF232371BFF35F8F10BD00BF10B50446E3
:100C20000120FFF78FFD034B18442060BFF35F8F57
:100C300010BD00BFF4800020024B19440160BFF3D7
:100C40005F8F7047F48000200E4B10B41A68EFF3EA
:100C5000108172B6D2E8CF4F0120002CFAD1C2E841
:100C6000440F002CF6D1BFF35F8F00221B68C3E84E
:100C70008F2F81F3108840BF002000215DF8044BC6
:100C8000704700BF1C7E00202DE9F04F91B0EFF3BC
:100C90000583DBB2103B9A080EBFB749B749012262
:100CA0000F46012103F00306B54B06EB820253F811
:100CB00022B007F5415001FA06F3BA46CDE90045E6
:100CC0000796069343603AE0BBF80430190440F1FC
:100CD000BD809BF80630002B40F01581BBF9082041
:100CE000002AC0F24481DBF8143002EB420203EB2D
:100CF000C202D2E902677B1C08BFB6F1FF3F0FD0EA
:100D0000079BDAF828000AEB83021369311A1B1AD1
:100D1000994204D3DAF8203006990B4200D11661CB
:100D2000504600F007FC331A029367EB010303936C
:100D3000DDE90234012B74F1000380F21881BBF964
:100D40000860069B002ECAF83C30BDDBDBF814704F
:100D500006EB46030893504607EBC303D3E9028929
:100D60001C46099300F0E6FBB0EB080061EB0901BB
:100D700004900591DDE90412002972F10001A3DB62
:100D8000B8F1000F79F10001C0F2FE807D4B2269BD
:100D90009A42099B00F026815988BBF9080089B264
:100DA00041EA00405969904702460B4652EA030166
:100DB00000F0EA80002A73F1000180F20881B8EBAC
:100DC000020069EB0301089B37F93380099BB8F1F6
:100DD000000F9860D960FFF677AFDBF8143008EBAE
:100DE000480C03EBCC0CDCE90242041B61EB020271
:100DF0000B920A94DDE90A45002C75F10002FFF61A
:100E000063AFBE46ABF80880DDE90C7809E0946872
:100E1000071BD46861EB0408002F78F1000409DB9C
:100E20009446BCF9009009EB4902B9F1000F03EBBD
:100E3000C202ECDA089BCDE90C782EF83390ACF8BE
:100E40000060BBF8043019043FF543AFDBF8103005
:100E5000EFF3108272B6D3E8CF0F01210028FAD148
:100E6000C3E8401F0028F6D1BFF35F8F4FF6FF7134
:100E7000BBF80480DBF81030ABF804100FFA88F8E8
:100E80000021C3E88F1F82F310888845FFF621AF49
:100E9000DDE900450BF1080150468A46DBF8146095
:100EA000BBF9083008EB480906EBC902002BD44611
:100EB000D2E9021E16DB5F46009004E036F93B30B3
:100EC0009446002B0CDB03EB430B06EBCB02906844
:100ED0000C1AD0686EEB0005002C75F10000EDDAFD
:100EE000BB460098ACF8008036F9398026F83930D6
:100EF000B8F1000FD4DA9BF806308246CDE9004500
:100F0000002B3FF4EBAE00238BF80630BBF9083022
:100F10000BF1080E5A1C2AD0DDE900451A46DBF811
:100F2000146002E08646591C1CD003EB430106EB1B
:100F3000C10047889C463F0436F93130F2D54FF066
:100F4000FF374FF0FF389445C0E90278EBD0AEF898
:100F50000030BBF80800624626F83100591CABF897
:100F600008C0E2D1002ACDE90045BFF6BCAE40BFC3
:100F700011B0BDE8F08F00BF00000B4000800B40B7
:100F8000A87D0020890C0010089CDBF8103037F891
:100F90003420ABF80820EFF3108272B6D3E8CF0FFD
:100FA00001210028FAD1C3E8401F0028F6D1BFF381
:100FB0005F8FBBF80230DBF8101027F834300023C5
:100FC000ABF80260C1E88F3F82F310887CE65046A0
:100FD000CDE90E2300F0AEFADDE90E23801843EBD5
:100FE0000101F0E6596908460A690E919047002808
:100FF000CAD00E99D1E90023D8E600BF2DE9F84FF9
:10100000384C25692DB1BDE8F84F0A213648FFF765
:10101000C7BD0321DFF8E8800E46404600F078FAAD
:10102000C4F80C80FFF782FB4FF0504B4FF6FF7275
:101030004FF00F0A2D4B267018442D4BDBF800B0F3
:10104000A36063692061A28084F801B0A4F802A0C3
:101050001A804FF00402A3F878204FF00502A3F89D
:1010600090204FF00602A3F8A8204FF00702A3F843
:10107000C0204FF00902A3F8F0204FF00A02A3F8B5
:1010800008214FF00B02A3F820214FF00C024FF083
:10109000020E08274FF00D0C4FF001090E21A3F8A6
:1010A0003821144A1D83A3F86060A3F848E0A3F830
:1010B0006811A3F83090A3F8D870A3F850C1304657
:1010C000C8F820700C49D460FFF7C8FB4946304689
:1010D000FFF780FB094B0A211F600348BDE8F84F6A
:1010E000FFF75EBDF01A00201C7E0020F480002077
:1010F000FFFF1000A87D0020890C001040200B404D
:1011000000000B4000487047F01A00202DE9F8431A
:101110009DF82870044615461E4657B900F012FA8D
:10112000B5EB000866EB0109B8F1000F79F1000397
:1011300056DB2369EFF3108072B6D3E8CF1F01228C
:101140000029FAD1C3E8412F0029F6D1BFF35F8F00
:10115000B4F90220676902EB4201002A4FEAC10E8E
:1011600007EBC10102DB37F80E3063804FF0000857
:101170002369C3E88F8F80F31088424533DB4888AA
:10118000089B0130C0F30E00012838BF01200B611D
:10119000099B48804B61C1E9025640EA024023693D
:1011A000EFF3108172B6D3E8CF6F0125002EFAD18C
:1011B000C3E8465F002EF6D1BFF35F8FA588236991
:1011C00027F80E50A280C3E88F8F81F31088012288
:1011D000E368217803F501538A405A60BDE8F8833B
:1011E0003846BDE8F8834FF0FF30F7E701462DE9B8
:1011F000F04100699846EFF3108E72B6D0E8CF5FE9
:101200000124002DFAD1C0E8454F002DF6D1BFF3DF
:101210005F8FB1F902504E6905EB4504E700002DE0
:10122000A8BFF05B4FF0000CA8BF488006EBC404D9
:101230000869C0E88FCF8EF31088654531DB608880
:10124000069B0130C0F30E00012838BF0120236146
:10125000079B60806361C4E9022840EA05400B698E
:10126000EFF3108272B6D3E8CFEF0124BEF1000F86
:10127000F9D1C3E84E4FBEF1000FF4D1BFF35F8F39
:101280008C880B69F4538D80C3E88FCF82F310886C
:101290000122CB68097803F501538A405A60BDE802
:1012A000F0814FF0FF30FAE74289B2EB214F37DD92
:1012B00042690B1403EB430302EBC30370B40269EE
:1012C000EFF3108472B6D2E8CF6F0125002EFAD169
:1012D000C2E8465F002EF6D1BFF35F8F5A8889B20D
:1012E00092B28A4207D003690020C3E88F0F84F3CB
:1012F000108870BC704742F400425A8001230022DB
:1013000001698371C1E88F2F84F31088C268017866
:1013100002F5015203FA01F1184670BC51607047A2
:1013200000207047407870472DE9F04F831F85B04B
:10133000029341F1FF330393DDE90234A14208BF78
:10134000984206460F4603D200230024CDE902341A
:1013500000F0F8F8DDE90245B4EB000A65EB010B9B
:10136000BAF1010F7BF1000306DA3046394605B0C9
:10137000BDE8F04F00F024B900F0E4F8DDE90245E3
:10138000B4EB000865EB0109B8F1000F79F1000337
:101390000ADB0022194B1A48CDE90032DDE90223AD
:1013A000FFF724FF0028E0DBDDE902344FF0000CFA
:1013B00025461C461348144A436A9D4204D8816A54
:1013C000A142D2D29D42D0D11368EFF3108172B600
:1013D000D3E8CF8F5FF0010EB8F1000FF8D1C3E86A
:1013E00048EFB8F1000FF3D1BFF35F8F1368C3E884
:1013F0008FCF81F3108820BFDEE700BF490C0010BB
:10140000F01A002000000B401C7E002010B504469E
:1014100000F098F84FF47A73E3FB0401BDE8104044
:10142000002871F10003BCBF4FF0FF306FF00041A6
:10143000FFF77ABF2DE9F04F07460E4685B0EFF370
:101440000584E4B23CB12F4B586A88421FD2002079
:1014500005B0BDE8F08F2C4DD5F80C8095F80090C4
:10146000404600F067F809F1040358F823200023F0
:10147000B7EB000AA2EB000266EB010B92457BEB97
:10148000030311DB20BF1F4B586A8642DFD89B6ADB
:10149000BB4203D3012005B0BDE8F08F801B18BF0D
:1014A000012005B0BDE8F08F00F04CF83B1A029324
:1014B00066EB01030393DDE90223002A73F10003C5
:1014C00013DB124B284600933A4633460194FFF74C
:1014D0008DFE011E09DD0B4B5A6A96420FD89B6A9E
:1014E000BB420AD30848FFF7DFFE064B586A864224
:1014F000ADD89B6ABB42CDD2D0E79642F2D120BF95
:10150000F0E700BF00000B40F01A0020490C00106B
:1015100010B4054B054C064AA04214BF1846581C8F
:101520005DF8044BFFF794B8D874002000800B409E
:10153000C06B0110416A0B46826A416A8B42FAD144
:1015400010467047044A1346516A0A46986A596A17
:101550009142FAD1704700BF00000B402DE9F00323
:1015600004460D46154B1A465B6A1946906A536A43
:101570008B42FAD122186B414FF000084FF000095E
:1015800024BF4FF001084FF0000958EA090118BFC5
:101590004FF0FF33104618BF184608494A6A9A426E
:1015A000FCD39A4207D1054A02E0516A994202D11E
:1015B000916A8142F9D3BDE8F003704700000B4007
:1015C000074A536A9942FCD8994207D1044B02E07A
:1015D0005A6A914202D19A6A8242F9D3704700BF97
:1015E00000000B40F0B500EB4004A40004F180447F
:1015F00004F580346568061FB5F5803F38BF4FF4A9
:101600008035F6B238BF6560012E964628D94FF472
:10161000006C234F04F54055C5F800C057F8205022
:10162000ADB9256804F5805C85EA4E1202F0E0024F
:10163000012ECCF8002026D94FF400614FF48032FF
:1016400047F8203004F5005319606260F0BD7A69F4
:10165000B2FBF5F5013505EB4505033DFDD2E0E7AD
:101660000129D4D1032604F540552E60A568EA0768
:10167000FCD5256804F5805C85EA4E1202F0E00294
:10168000074FCCF80020012522688D40514001F021
:101690000301CCF80010A2682A42FCD0CCE700BFBE
:1016A000EC740020014B53F820007047EC740020CC
:1016B00070B41E4D039CB5FBF1F5B2FBF5F2056865
:1016C0002403002D44EA034320DB194D194EA842A0
:1016D0000CBF4FF400454FF48045174C3560A6F51C
:1016E000FF56183E2560346835EA0404FBD12125F5
:1016F00000F5405404340160826025600268002ACD
:10170000FCDA0822C360226070BC7047046804F0F1
:101710003F048C42D9D18468C4F30B049442D4D1E1
:10172000C46804F4EE249C42CFD1EDE7001BB7005F
:1017300000800540002002400030024030B44FF0ED
:1017400080441D4B1C60E0B11C4C40F001001C4D5E
:10175000A3F540534440DD611C62596298624FF02A
:1017600080454FF0E061144B1648174C1D60046033
:1017700019604AB930BC4FF00042A3F580531A609B
:101780007047124BD861EAE74FF47A7303FB02F219
:10179000B2F1807F09D20E4B1A604FF0804130BC0D
:1017A0000A480C4B4260196070476FF07F4308494C
:1017B0001A460B60F1E700BF00B00D402D3FF84F17
:1017C000D3C007B008A00140F3FFFF0100800D4027
:1017D000847D002000A00D40012300EB400080002C
:1017E00000F1804000F5841041600360704700BF45
:1017F00010B5162482B00B462488002141E800F180
:10180000CDE900034B0254BF1021042144F25220C1
:10181000A047DDE9002304460A214FF48170A44665
:1018200002B0BDE81040604716231B88002242E842
:1018300000F2520201D4102118470421184700BFBA
:1018400008B50B46011E02DB22B143F030031846F7
:10185000FFF7CEFF43F02003F9E700BF034A136808
:10186000002BFCD0BFF35F8F704700BF28080E40ED
:101870000021044B044ABFF35F8F43F8041B9342DB
:10188000F9D170470C080E402C080E40084B30B4BC
:101890004FF42A654FF48D741A46064906481D60B8
:1018A000DC6008605368002BFCDA30BC704700BF76
:1018B0000080044000A0044000B0FA00704700BF60
:1018C00008B50148FEF7ACFEE46B011038B5084DD1
:1018D000084B9D420BD2013B5B1B23F003030433F7
:1018E0002C461D4454F8043B9847AC42FAD138BD0D
:1018F000F0690110306A0110074B30B41946074CEB
:10190000074D0848084A25600360136831EA03035D
:10191000FBD130BC704700BFF6FFF303002002404C
:101920007F3BEFEF0030024008000240044BDB6CCD
:10193000B3F5004F03D14FF48022024B1A60704779
:10194000000011504C2011504EF6885303F16043B3
:101950001968034A0A431A6010EE3004704700BF4A
:10196000030330006FF06041044B054A19601368AF
:10197000DB4333F06043FAD1704700BF00300240D0
:101980000800024010B545F25320FFF74DFFBDE8B7
:10199000104003460420184710B545F25320FFF7C6
:1019A00043FFBDE81040034601201847FEF7E4BEA0
:1019B00010B5054B054C18464FF48872A16813F01A
:1019C000B5F8A06010BD00BF0000002000ED00E0F1
:1019D000002370B52C4C82B0C4F88430FFF756FF5A
:1019E00001212246294B1960536C012BFCD10321A4
:1019F000274A254B11609C6B012CFCD10525022642
:101A00002B462146234A24480096FFF751FE2B46D9
:101A10002146224A22480095FFF74AFE314600221D
:101A20000420204BFFF7DEFD2846214600221E4BF6
:101A3000FFF7D8FD0022082011461C4BFFF7D2FD0E
:101A4000002209201146194BFFF7CCFD0022062089
:101A50001146154BFFF7C6FD0022134B1146072018
:101A6000FFF7C0FD0420FFF71DFE0024104DA5FB6D
:101A70000035AD0CE0B229460134FFF7ADFE062C6F
:101A8000F8D102B070BD00BF000001403C30014001
:101A900030300140002F685900000540008C864717
:101AA00000800540001BB70080D1F008006CDC020C
:101AB00083DE1B4386B003B451FC0804CDE9020168
:101AC00051FC0904CDE9040151EC0A04CDE90601F9
:101AD00003BCF047BDE800504EEC00C4BDE8005028
:101AE0004EEC01C4BDE800504EEC02C400BD000045
:101AF00000B5FFF7DFFF02E010FE30F4F8D441EC50
:101B0000100443EC112400EE010410EE010480EEF9
:101B1000200451EC1004704700B5FFF7CBFF02E042
:101B200010FE30F4F8D441EC100443EC112400EE24
:101B3000010410EE210480EE200451EC30047047C3
:101B400000B5FFF7B7FF02E010FE30F4F8D410B58F
:101B500041EC100443EC112451EC040453EC052433
:101B6000A0FB024C5FF0000EE0FB03CEE1FB02CED7
:101B70004CEC20440024E1FB03E444EC30E480EE30
:101B8000200451EC5004BDE81040704700B5FFF749
:101B900091FF02E010FE30F4F8D441EC100443EC65
:101BA000112451EC2104A0FB01126FEA820252FBC6
:101BB000100052FB12F252FB1000A0EBD07C53EC51
:101BC00004245CFB13F153EC1524A1FB022001FB60
:101BD000030053EC4424A2EB000050FB1CF24FEA3C
:101BE000111312EB017043EBE27140EA515020EA0D
:101BF000915020F0070053EC7524A0FB023C53ECFD
:101C0000752400FB03CC01FB02CC53EC0424ACEBA9
:101C1000824C40EA5C70A0F1010041EC400480EE8F
:101C2000200451EC7004704700B5FFF743FF02E059
:101C300010FE30F4F8D440EC700400EE010410EE15
:101C4000210480EE200451EC3004704700B5FFF70A
:101C500031FF02E010FE30F4F8D440EC600400EEF6
:101C6000010410EE210480EE200451EC3004704792
:101C700000B5FFF71FFF02E010FE30F4F8D441EC8E
:101C8000800400EE010410EE010480EE400410EE2A
:101C90001304704700B5FFF70DFF02E010FE30F4AB
:101CA000F8D441EC800400EE010410EE010480EE53
:101CB000400410EE3304704700B5FFF7FBFE02E06E
:101CC00010FE30F4F8D441EC100443EC112400EE83
:101CD000010410EE3004C0F30070704700B5FFF748
:101CE000E9FE02E010FE30F4F8D443EC102441EC9D
:101CF000110400EE010410EE30F48CBF012000202E
:101D0000704700BF00B5FFF7D5FE02E010FE30F4CB
:101D1000F8D443EC102441EC110400EE010410EE61
:101D200030F42CBF01200020704700BF00B5FFF742
:101D3000C1FE02E010FE30F4F8D441EC100443EC94
:101D4000112400EE010410EE30F42CBF012000201D
:101D5000704700BF00B5FFF7ADFE02E010FE30F4A3
:101D6000F8D441EC100443EC112400EE010410EE11
:101D700030F48CBF01200020704700BF10B504462E
:101D800012F08AFB28B10346034A2344934200D849
:101D900010BD0248FEF744FC00000820F06B011063
:101DA00038B505460C4612F07DFA04FB05F428B15F
:101DB0000346044A2344934200D838BD0248FEF744
:101DC0002FFC00BF00000820F06B011010B50C467E
:101DD00013F010F820B1044A0119914200D810BD47
:101DE0000248FEF71DFC00BF00000820F06B011048
:101DF00012F05ABB10B4EFF3108272B60A4BD3E85C
:101E0000CF4F0121002CFAD1C3E8441F002CF6D19A
:101E1000BFF35F8F0024D0E90001C3E88F4F82F346
:101E200010885DF8044B70470181002070B414469F
:101E30001D46EFF3108272B60A4BD3E8CF6F012133
:101E4000002EFAD1C3E8461F002EF6D1BFF35F8FF4
:101E50000021C0E90045C3E88F1F82F3108870BCE1
:101E6000704700BF01810020F0B414461D46EFF317
:101E7000108272B60C4BD3E8CF6F0121002EFAD13D
:101E8000C3E8461F002EF6D1BFF35F8F0021D0E9D3
:101E90000067C0E90045C3E88F1F82F31088304611
:101EA0003946F0BC704700BF018100209A4238BF1C
:101EB00088547047704700BF2DE9F84F9A460D9B34
:101EC00017469A0705468B46DDF8288011D1DDE9D3
:101ED0000B3293420DD213463C460B9A9E1A3E4457
:101EE00022465346594620200134A847B442F7D130
:101EF00000E03E460B9B73B108EB030406EB0409BC
:101F0000A9EB040214F8010D53465946A84744456D
:101F1000F6D10B9B1E440D9B9B0719D50C9BF41B04
:101F2000A34215D99846E219534659462020013458
:101F3000A8474445F7D30C9B0C9A013B3B44C7F19F
:101F400001079B1B3744BA4238BF002301361E44A9
:101F50003046BDE8F88F00BF2DE9F04F0F9F9DF888
:101F60002C90BD070E9EDDE909E4DDE90C8C2AD436
:101F7000002E69D1644507F0010B80F0C5801F2C4D
:101F800088BF202400F2C080651E4FF0300A7544DF
:101F900001E0202C04D00134A44505F801AFF8D8A5
:101FA000BBF1000F0FD0B4420DD21F2C5DD8651EBF
:101FB0004FF0300A754401E0202C56D00134B44271
:101FC00005F801AFF8D1FD0630D57D0557D4002CBA
:101FD00051D1B8F1100F7CD0B8F1020F00F08F8012
:101FE00030248EF800400124B9F1000F23D02D25B4
:101FF0000EF804500134CDE90B67CDE909E4BDE8E2
:10200000F04FFFF759BFBD066AD4202CF3D00EEB7A
:10201000040C013478258CF80050202CEBD04FF0C4
:10202000300C0EEB040585F800C00134202CE2D002
:10203000B9F1000FDBD17D0733D43D07DBD5202577
:102040000EF804500134D6E717F0010B23D0B9F194
:10205000000F32D117F00C0F2FD16445A3D21F2CE3
:1020600092D9202E01D82024ADE7FD064FF02004A0
:10207000C1D57D0503D4A44521D0A6421FD0B8F117
:10208000100FC0D0B8F1020FC7D1202CB3D00EEB87
:102090000405013447E0644595D21F2C7FF674AFE8
:1020A000E1E72B250EF804500134CDE90B67CDE9AB
:1020B00009E4BDE8F04FFFF7FFBE013ECDE7651E26
:1020C00087D0B8F1100F24D0B8F1020F2AD02C46D7
:1020D000A5E7BC060ED478248EF8004001249EE7C4
:1020E000202C88D04FF0580C0EEB040585F800C06A
:1020F000013492E758248EF8004001248FE76224CF
:102100008EF8004001248AE7BBF1000F08BF0026CB
:1021100059E717F0200FA4F10204E3D10EEB040CF1
:102120002C4677E775444FF0620C85F800C074E7E1
:1021300000B9704701F092BB10B1D1E900311847E6
:10214000704700BF000000002DE9F04F2DED048B1B
:1021500097B0DDE9246780468A4691469B46304623
:10216000394632463B46FFF7ABFD002840F0EA8097
:102170004FF0FF32304639467D4BFFF7EFFD002828
:1021800040F0E0804FF0FF326FF480133046394664
:10219000FFF7A8FD002840F0D5800022002330463C
:1021A0003946FFF79FFD002840F0D381CDE908674D
:1021B000DDE90845289B13F480630C93269B08BF38
:1021C0000623269354EA050340F0D680289B13F497
:1021D000006300F0B8810023002400250A93269BA9
:1021E00019460A9B99421A46C9BF0A460023D01ACB
:1021F00000F1FF3326930023289A0B9342F4806268
:1022000028920A93279B19460B9B99421A468ABF2C
:102210000A460023D31A0C93289B13F002030D9354
:1022200005D00B9B002B0C9B18BF00230C930A9B23
:102230003BB1DDE9080122462B46FFF7ABFCCDE9B7
:1022400008010022002330463946FFF74BFD30B12C
:10225000DDE90801024601F10043CDE908239DEDC7
:10226000087B0C9A289B0392269A23F4006302921F
:1022700004938DED007B5B464A465146404600F094
:102280009BF90B9E0446002E6BD0289B224613F030
:10229000200F14BF452065205B465146C0470A9970
:1022A0000DF1380E00290B46B8BF4B42C90FF4465A
:1022B00000253048621C013E089101E0202D0FD01E
:1022C0001F46A0FB0341C90801EB8104A3EB4403B3
:1022D0003033092F0CF8013B05F101050B46EDD811
:1022E000052000210A23089CCDE90331CDE90154E2
:1022F0005B460690514640460596CDF800E0FFF754
:102300002BFE0D9B044663B3279BA0EB0905AB4254
:1023100027D91E4609EB05025B46514620200135B0
:10232000C047AE42F6D8279B09F1FF311944279ADE
:10233000C9F10103091B23449A4238BF002101342B
:102340000C440EE0289B4A460493279B5146039376
:10235000269B40460293CDE900675B4600F02CF9CE
:102360000446204617B0BDEC048BBDE8F08F00BFDB
:10237000FFFFEF7FCDCCCCCCC5F30A50A0F2FF30ED
:10238000FFF756FC88A3D3E90023FFF7DDFB88A302
:10239000D3E90023FFF7B0FB41EC170B2046C5F350
:1023A000130444F07F510022794B41F4401155EC65
:1023B000174BFFF7B5FB6AA3D3E90023FFF7C4FB74
:1023C00002460B4620462946FFF796FBFFF754FCD2
:1023D0000A90FFF72DFC64A3D3E9002304460D46C1
:1023E000FFF7B2FB00226B4BFFF786FBFFF744FCC5
:1023F0005FA3D3E90023844629462046CDF82CC0AC
:10240000FFF7A2FB04460B980D46FFF711FC5AA3F9
:10241000D3E90023FFF798FB02460B4620462946E6
:10242000FFF77EFB02460B4604460D46FFF78CFB8A
:10243000224641EC190B2B4620462946FFF75CFB50
:10244000002241EC180B544B51EC190BFFF7A2FB87
:102450000022524BFFF750FB02460B4651EC190B82
:10246000FFF798FB00224E4BFFF746FB02460B4658
:1024700051EC190BFFF78EFB41EC170B22462B4654
:1024800000204FF0804155EC174BFFF749FB024607
:102490000B4620462946FFF72FFB02460B4651EC20
:1024A000180BFFF777FB00223E4BFFF725FB0B9C39
:1024B000002204F2FF342305FFF746FB04460D46D5
:1024C000DDE9080122462B46FFF70CFC00282ED13F
:1024D000204629460A9B6333C72B34BF04230523B8
:1024E0000B93289B1B057FF58DAE50EA01033FF44B
:1024F00076AE23A3D3E90023DDE90801FFF71AFC38
:1025000048B121A3D3E90023DDE90801FFF7EAFB85
:1025100000287FF464AE269B002B3FF473AE0C9B27
:10252000002B3FF46FAE269B013B26936AE62046C4
:1025300029461A4B0022FFF72DFB0A9B0446013B5C
:102540000D460A93C6E70A930423002400250B9343
:1025500058E607F100430896099329E6AFF3008097
:1025600061436F63A787D23F71A379094F930A40F4
:102570001655B5BBB16B0240EF39FAFE422EE63F6D
:102580002D431CEBE2361A3F0000000080842E41F0
:102590000000F83F0000E03F00002C400000244015
:1025A000000018400000F03FFB799F501344D33FD8
:1025B000B3C8608B288AC63F2DE9F04F2DED028B02
:1025C00086468C461C46154695B0DDE920673046A8
:1025D000394632463B46CDE90954CDE907ECFFF7D1
:1025E0006FFB229C002840F0DD814FF0FF326FF43A
:1025F000801330463946FFF775FB002840F0108104
:102600004FF0FF3230463946C34BFFF7A7FB002897
:1026100040F0DF80BCA3D3E9002330463946FFF702
:102620009DFB002840F0C380B9A3D3E900233046C6
:102630003946FFF757FB002840F0B98000220023FD
:1026400030463946FFF74EFB002840F0DE800B9005
:10265000249B302213F4806F08BF06240CABA246E3
:10266000A4F1200106E00AF1FF3A514503F8012BDD
:1026700000F03B81BAF1090FA4EB0A05F3D8394603
:102680003046FFF7F9FAA54B044603EBCA0393ED76
:10269000007BB0EE478AF0EE678AFFF7C9FA024680
:1026A0000B4630463946FFF73BFA53EC182BFFF741
:1026B0004BFA89468046FFF7F1FA8346FFF7CAFADC
:1026C00002460B4640464946FFF72AFA0022944B41
:1026D00080468946FFF742FB002800F0F7800BF1A7
:1026E000010B5846FFF7B6FA02460B4651EC180BA1
:1026F000FFF70CFB10B14FF0000B0134BAF1000FE3
:1027000040F0A1802046FFF793FA02460B46304680
:102710003946FFF705FA0022814B06460F46FFF7C0
:10272000E1FA40B90022304639467D4BFFF716FBEF
:10273000002800F01A816A1E0CAB7A491A44202D39
:102740004FEAE47300F09A8081FB0460C3EBA003BE
:1027500003EB8300A4EB4004303402F8014F013551
:102760001C46002BEBD1249B03F00303012B00F04C
:102770001481202D09D00B9B002B00F0B8802D2256
:1027800014AB2B4403F8202C0135249BDDE9070111
:102790000393239BCDE901530CAB0093DDE909239F
:1027A000FFF78AFB15B0BDEC028BBDE8F08F249BD0
:1027B000CDE90067DDE907010493239BCDE90243DE
:1027C000DDE90923FFF7C0FC15B0BDEC028BBDE8C5
:1027D000F08F249B544C03F00403002B534B08BF91
:1027E0000325DDE907011CBF1C460425249A239B11
:1027F00003920293CDE90045DDE90923FFF75CFB75
:1028000015B0BDEC028BBDE8F08F3B463246002090
:102810000021FFF785F9012306460F460B9317E7C2
:102820002A460425249B424C0393239BCDE9004573
:10283000DDE9070102930A9BFFF73EFB15B0BDECF3
:10284000028BBDE8F08F681E0CAB3A4F18440FE0C6
:10285000A7FB0B32D20802EB8203ABEB430330330E
:10286000BBF1090F00F8013F66D9B24693460D4609
:10287000202D0AF1FF3605F10101E9D1249B03F077
:102880000303012B81D1239B002B3FF47EAF0B9BD5
:102890001BB9249B13F00C0F02D0239B013B239305
:1028A000239BAB427FF665AF202D0DD030226B1EEF
:1028B0000DEB02010B44239901358D4203F8012FE2
:1028C0003FF457AF202DF7D120255EE7404649461B
:1028D0000022134BFFF706FA00287FF40FAFBBF17D
:1028E000000F4ED10BF1010B08E72025C7E6249B12
:1028F0005A073FD41B077FF548AF202214AB2B4467
:1029000003F8202C013540E70000000065CDCD41E3
:102910000000000065CDCDC1FFFFEF7FB86C011056
:102920000000E03F67666666A06C0110A46C0110B1
:10293000B06C0110CDCCCCCC202927D00B466EB189
:1029400030200DEB000215440133202B05F8010F58
:102950002ED0DA430A4412EB0A0FF5D12E2114AA25
:102960001A4402F8201C5D1CE5E6E1077FF5E3AEA2
:102970000134E0E62B2214AB2B4403F8202C013564
:1029800003E71BF0010F3FF4B9AEABE7249B0D4604
:1029900003F00303012B7FF4F8AE239B002B3FF4DD
:1029A000E8AE74E7249B2A46084C032503933CE7D2
:1029B000249A02F00302012A01D01D46E5E6239A7B
:1029C0001D46002A7FF463AFDFE600BFAC6C011048
:1029D0002DE9F04F2DED028BB04F1C46B04DB14E9E
:1029E0001B78B1F1000A9FB008BFBB46904618BFE4
:1029F00083462A9F2E60002B00F00E834FF00009C3
:102A000018460AE04A464346514609F10109013495
:102A1000D8472078002800F026812528F2D100210F
:102A2000631C1C4613F8010BA0F12002102A0AD8DF
:102A3000DFE802F03C0909390909090909090936E1
:102A4000093309093000A0F13003092B40F2ED8071
:102A50002A2800F0188100252E2800F0F580002398
:102A60000993A0F16803122B2AD8DFE813F06D0157
:102A700029006801290022002900290029002900D5
:102A8000290029002900D90029002900290029004E
:102A90002900D90041F00101C3E741F00201C0E77C
:102AA00041F00401BDE741F01001BAE741F008012F
:102AB000B7E760786C2800F0AA8241F48071013495
:102AC000A0F12503532B9DD801A252F823F000BF9B
:102AD000892D0010052A0010052A0010052A001073
:102AE000052A0010052A0010052A0010052A0010EA
:102AF000052A0010052A0010052A0010052A0010DA
:102B0000052A0010052A0010052A0010052A0010C9
:102B1000052A0010052A0010052A0010052A0010B9
:102B2000052A0010052A0010052A0010052A0010A9
:102B3000052A0010052A0010052A0010052A001099
:102B4000052A0010052A0010052A0010052A001089
:102B5000CB2E0010592D0010CB2E0010052A00108E
:102B6000052A0010052A0010052A0010052A001069
:102B7000052A0010052A0010052A0010052A001059
:102B8000052A0010052A0010052A0010052A001049
:102B9000052A0010052A0010052A0010A92C001093
:102BA000052A0010052A0010052A0010052A001029
:102BB000052A0010052A0010052A0010052A001019
:102BC000052A0010A92C0010672E0010A92C001057
:102BD000CB2E0010592D0010CB2E0010052A00100E
:102BE000A92C0010052A0010052A0010052A001043
:102BF000052A0010052A0010A92C00102B2E001009
:102C0000052A0010052A00109D2D0010052A00102D
:102C1000A92C0010052A0010052A0010A92C00106C
:102C2000607841F4807101344AE7002505EB8505A1
:102C300000EB450514F8010F303DA0F13003092BDE
:102C4000F4D92E287FF40BAF607841F48061A0F1B5
:102C50003003092B04F1010240F220812A2800F000
:102C60002C811446FBE64C46C84501D808F1FF39D3
:102C700043464A4651460020D84720461FB0BDEC87
:102C8000028BBDE8F08F57F8045B6078002DBCBF65
:102C900041F002016D420134DEE600BFB51E0010B6
:102CA000807D0020D1290010782800F05D8158280F
:102CB00000F0B5816F2800F06081622800F07A830F
:102CC00021F010030C930A2369280D9340F05881DA
:102CD000490540F15D810C9B23F001030C936928A9
:102CE00000F05681642800F053810C9B13F40070AF
:102CF00040F0B18213F4807140F05F835E0657F8B4
:102D0000042B40F14C82D2B2002A40F07A820C9817
:102D100020F010030C93430540F17382114616AB6B
:102D20000A9300230C9A0191CDE90552099A049265
:102D30000D9A03920A9A029300924A465BE16078E8
:102D400041F400710134BBE66078682800F05A81D4
:102D500041F080010134B3E6462808BF41F020016C
:102D6000099BCDE903510737029327F00707F7E8DE
:102D700002014A46CDE90001434651465846FFF755
:102D80001BFC0134814644E64A4609F101054346ED
:102D900051462520A9460134D8473AE63B4653F828
:102DA000046B0E93099B3078002B00F0CC80002838
:102DB00000F046835F1E7A1C33460C92B71801E080
:102DC000BB4205D013F8012F002AF9D19B1B0C93AD
:102DD00011F480630A9305D00C9B099A934228BF93
:102DE00013460C9311F002030D9300F02381002889
:102DF00000F039810A9B002B00F0AB80099B4A460A
:102E00004B441F4608E043465146D84716F8010F89
:102E100009F1010910B14A464F45F4D10D9B002B31
:102E200040F021810E9F0134F3E557F8043B002B5D
:102E30006BD041F0210016AA154600210A9202E04B
:102E400020296BD0134603F00F063246092E94BF9B
:102E5000303237320F2B05F8012B01F101014FEA17
:102E60001312EDD85AE08E0740F10F8157F8040B8A
:102E700043464A465146C0B2D847012D09F10106E2
:102E800088BF4D4407D9324643465146202001367B
:102E9000D847AE42F7D1B1460134BAE5002303EB7F
:102EA000830300EB430312F8010F303BA0F1300421
:102EB000092CF4D914460993D3E557F8043BA078BC
:102EC00023EAE37309930234CBE500F0DF03472BD9
:102ED00004BF00F0FD0041F40061452808BF41F047
:102EE0002001099BCDE903510737029327F007071B
:102EF000F7E802014A46CDE90001434651465846EB
:102F0000FFF722F90134814683E521F010004D05D9
:102F100040F021008FD5194616AB0A93082205927E
:102F2000099A00230492102203920A9A06900191B2
:102F3000009202934A46434651465846FFF70CF822
:102F40000134814665E56FF0010700287FF433AF57
:102F50003DE74A4643465146D84716F8010F09F166
:102F600001090028F5D159E710230D9321F00C0336
:102F70004A050C937FF5B3AEADE608230D930C9193
:102F8000642818BF0C99F1D10C9B5A053FF5A3AEEC
:102F90000C9B13F4007040F0918013F4807140F0AA
:102FA0007C815E0600F1DF8013F0800F57F8043B50
:102FB00000F041821BB283EAE372A2EBE37292B2A9
:102FC000D80F0E90002B40F0F2800C9820F01003E8
:102FD00040050C9340F1EB8016AB0A934A460C9BDC
:102FE000CDE90553099B04930D9B03930E9BCDE9FB
:102FF00001130A9B0093434651465846FEF7ACFF27
:10300000814649E7A07841F0C001023458E5A07834
:1030100041F44071023453E51C46994624E621F000
:103020000C0343F020030C9310230D934B053FF545
:1030300052AE5AE60C9A954202F1010340F2048224
:1030400005EB0907BF1A4A4643465146202009F1BD
:103050000109D847B945F6D130786B1C0C9300288C
:103060007FF4C8AEDEE60C9B4E469D427FF6DAAE9C
:1030700005EB0900A0EB03093246434651462020E8
:103080000136D8474E45F7D1CCE6012D40F2DA8122
:1030900009F1FF331D444A4643465146202009F1B9
:1030A0000109D847A945F6D157F8040B43462A46EB
:1030B0005146C0B205F10109D847EDE6073727F0C0
:1030C0000707F7E80223002A1946CDE90A2373F11E
:1030D0000003104667DB0B9BCDE91001D90F0023DD
:1030E0000E910D9908461946DDE90A2313433FD096
:1030F0000C9BCDE9127913F0200F14BF3722572211
:1031000016AB08EE108ACDE91454DDE9104500260F
:10311000CDF840B01F468046894693460A9303E0A7
:10312000202E17D004460D4642464B4620462946DF
:1031300013F0BEFBD2B2092A02F1300388BF02EBC2
:103140000B034D45DBB208BF444506F1010607F805
:10315000013BE5D218EE108ADDE91279DDE914545D
:10316000DDF840B00DE057F8043BDBB21A4627E724
:103170000C9A22F010030C935305B9D5002616AB18
:103180000A930C9B4A46CDE90553099B04930D9B7A
:1031900003930E9BCDE901630A9B00932BE718066E
:1031A00048BF92B2B0E5404261EB410193E70C9B0E
:1031B00007EE908A13F0200F16AB14BF4FF0370EB6
:1031C0004FF0570E9C460D980A9302E0202915D027
:1031D0003246B2FBF0F600FB16285FFA88F3B8F12E
:1031E000090F03F130088ABF73445FFA88F3DBB23A
:1031F000824201F101010CF8013BE7D217EE908AFF
:10320000ECE60C9B07EE908A13F0200F16AB14BF70
:103210004FF0370E4FF0570E9C460D980A9302E080
:10322000202915D03246B2FBF0F600FB16285FFAD3
:1032300088F3B8F1090F03F130088ABF73445FFACD
:1032400088F3DBB2824201F101010CF8013BE7D2C5
:1032500017EE908A65E5073727F00707F7E802239E
:10326000CDE90E2300220D9B11461846DDE90E2301
:1032700013433AD10C9A22F010030C93530534D522
:10328000002616AB0A930C9A0023CDE90552099A41
:10329000019604920D9A03924CE53A4652F8043B8B
:1032A0000E9283EAE372A2EBE3724FEAD37E002B25
:1032B00056D10C9921F010034F050C9350D516AB45
:1032C0000A934A460C9B0190CDE90553099B049350
:1032D0000D9BCDE902E30A9B0093434651465846B5
:1032E000FEF73AFE0E9F8146D6E50C9BCDE912957E
:1032F00013F0200F14BF3722572216AB08EE108AA6
:10330000109714940026DDE90E451F46CDF838B01D
:103310008046894693460A9303E0202E17D0044640
:103320000D4642464B462046294613F0C1FAD2B21A
:10333000092A02F1300388BF02EB0B034D45DBB2D3
:1033400008BF444506F1010607F8013BE5D218EE37
:10335000108ADDE91295109F149CDDF838B092E7D1
:103360000C9B07EE908A13F0200F16AB14BF4FF0A2
:10337000370C4FF0570C1F460D990A9302E0202896
:1033800015D03246B2FBF1F601FB16285FFA88F33E
:10339000B8F1090F03F130088ABF63445FFA88F37C
:1033A000DBB28A4200F1010007F8013BE7D217EED9
:1033B000908A86E702230D93E1E53B4653F8042B00
:1033C0000E93AAB90C9921F010034F050C930FD559
:1033D00016AB0A9300230C9A0190CDE90552099A85
:1033E000029304920D9A03920A9A00924A4674E755
:1033F0000C9B0D9913F0200F16AB14BF4FF0370C38
:103400004FF0570C1F460A9302E02028E2D0724684
:10341000B2FBF1FE01FB1E26F3B2092E03F13006CA
:103420008ABF6344F3B2DBB28A4200F1010007F8BD
:10343000013BEAD2CEE783EAE372A2EBE372BFE597
:103440000C90C5E44D462FE60C9300287FF4D2ACD7
:10345000E8E400BF0CB410B584B006AC54F8043BEB
:103460000A460094014604480394FFF7B1FA04B0F9
:10347000BDE8104002B07047AD1E001030B50D46DB
:10348000144683B0014600932A4623460248FFF7BC
:103490009FFA03B030BD00BFAD1E001030B5054629
:1034A0000C4685B0009302A9134604484FF0FF3242
:1034B000CDE90254FFF78CFA05B030BD3921001078
:1034C00010B5094B84B01C684CB1034600914FF015
:1034D000FF3203A90548A047012004B010BD00F049
:1034E00001FA204604B010BD807D0020312100107B
:1034F00000BEFDE7074A0346106838B10649034499
:103500008B428CBF4FF0FF30136070470349084671
:103510001160F3E76879002000000820FC8100209A
:1035200050B910B40C46064B1146D3E9002320468F
:103530005DF8044B00F0F6B84FF0FF30704700BF65
:10354000B86B0110431E012B09D810B5144608466C
:1035500001230022214600F069F8204610BD4FF0FB
:10356000FF3070474FF0FF30704700BF4FF0FF3023
:10357000704700BF4FF0FF30704700BF02288CBF7C
:1035800000200120704700BF08B5FFF7B1FF00BF62
:1035900038B5FEF79BF9084D084B9D420BD2013B15
:1035A0005B1B23F0030304332C461D4454F8043BF7
:1035B0009847AC42FAD138BD306A0110406A011018
:1035C00003680846114618470B682DE9F041802B27
:1035D0000C46064605D05A1C234422601E71BDE8E5
:1035E000F0810E4B1D6895B10D4F01F1040801E00B
:1035F0002D6965B12A68002AFAD03B680BB1AB424D
:10360000F6D14046216890472D69002DF2D1002364
:103610000122234422601E71BDE8F0810C79002054
:103620001479002003680846114618472DE9F04731
:1036300082B00D4692461E460746FDF783FF0022E4
:10364000324B10EB030841EB0209B8F1000F79F19E
:103650000003BCBF4FF0FF386FF0004942464B46B5
:103660002B4813F07DF96B1C804603D1384611F0CE
:1036700079FF0546274B284A1C68284B002E14BFAB
:1036800016461E46FCB1DFF89890BAF1000F28D01C
:103690004FF00A0A01E02469ACB12368002BFAD08C
:1036A000D9F800300BB1A342F5D120462A4639465D
:1036B000B047204601220DF107018DF807A0B04761
:1036C0002469002CE9D1B8F1000F18D1284602B0C6
:1036D000BDE8F0872A4639462046B0472469002CC9
:1036E000F1D02368002BF9D0D9F80030002BF1D0AD
:1036F000A342F3D12A4639462046B047EEE70448B4
:1037000013F0F6F8284602B0BDE8F08740420F00FB
:103710001C2800200C79002025360010C13500102F
:10372000147900202DE9F04F07460E46984683B0E5
:10373000DFF860A0DFF860B0DFF860900192DAF89F
:10374000004014B911E024697CB1DBF800500DB1E0
:10375000A542F8D1A268002AF5D0314638469047F4
:103760000028F0DD03B0BDE8F08FD9F824209045A3
:103770000BD8D9F82810019B994201D2904504D06A
:103780006FF0010003B0BDE8F08F01200021FDF7CC
:10379000E5FED4E70C7900201479002000000B40EE
:1037A000084A136823B90AE003F110021B6933B118
:1037B0009842F9D129B9036913600161704701B1D9
:1037C000106070470C79002000F034BB2DE9F04305
:1037D00083B00446FDF7B6FE061941F10007002E3E
:1037E00077F10003AEBF3D466FF000454FF0FF3666
:1037F000DFF86090DFF86080D9F8004014B913E07A
:1038000024698CB1D8F800300BB1A342F8D1A36879
:10381000002BF5D0012101A898470028F0DD9DF884
:10382000040003B0BDE8F083094B5A6AAA4209D3E9
:103830009B6AB34201D2AA4204D06FF0010003B0E8
:10384000BDE8F08301200021FDF788FED4E700BF2A
:1038500000000B400C79002014790020F0B583B0F3
:1038600005468DF80700FDF76DFE0022194BC618BE
:1038700041EB0207002E77F10003BCBF4FF0FF368B
:103880006FF0004732463B46134813F069F8134B7C
:1038900006461C689CB1124F01E024697CB1236884
:1038A000002BFAD03B680BB1A342F6D1204601228F
:1038B0000DF10701FFF7B6FE2469002CEFD116B910
:1038C000284603B0F0BD044813F012F8284603B0B0
:1038D000F0BD00BF40420F001C2800200C790020E2
:1038E0001479002038B5044611F03CFE012305464A
:1038F0001A4620462946FFF799FE084B1C682CB152
:1039000063682BB198472469002CF9D1284638BD4B
:103910002469002CF4D1284638BD00BF0C79002062
:103920002DE9F041A2B006468846FDF70BFE0022C5
:10393000274BC41841EB0205002C75F10003BCBFF6
:103940004FF0FF346FF0004522462B46214813F01C
:1039500007F8002443463246074601A91E48019451
:10396000FFF79CFD019B06467BB91C4B1C682CB1E4
:10397000636843B198472469002CF9D1FFB93046F8
:1039800022B0BDE8F0812469F1E7DFF85080D8F873
:103990000050DDB1124C01E02D6965B12B68002BA0
:1039A000FAD022680AB1AA42F6D1019902A8984732
:1039B0002D69002DF2D1D8F800400195D7E70548D0
:1039C00012F096FF304622B0BDE8F0810195D5E7B0
:1039D00040420F001C280020C93500100C7900203F
:1039E000147900200FB400B583B004A951F8040B7A
:1039F0000191FFF795FF03B05DF804EB04B0704749
:103A0000704700BF0022014B1A707047737F00207F
:103A10004B79FF2B0BD1887948B9CB79012B07D192
:103A2000082A05D98A78034B09201A7070470020AC
:103A3000704700BF737F002001207047012908D123
:103A400010B5124B0C461B789188994203D0002088
:103A500010BD012070475378012B08D0022BF6D1FE
:103A6000002164220846FDF769FE204610BD5188FA
:103A7000CB054BBF4A0A4A0A10464FF0FF3002F00E
:103A8000010201F07F01FDF7DBFE00BF737F002024
:103A900000487047286D0110012907D15378012B88
:103AA00002D19388072B03D0002070470120704774
:103AB0001146A623014A01F051BA00BF4C6D011016
:103AC0000346012201481A70704700BF086D0110BB
:103AD00008B50B68B3F5966F00D008BD00224FF013
:103AE000FF301146FDF7ACFE024A034B106019602F
:103AF000704700BFCC740020D0740020184B70B504
:103B00001A68002A28D0EFF3108172B6D2E8CF4F9E
:103B10000120002CFAD1C2E8440F002CF6D1BFF3EB
:103B20005F8F00220F48596002701B68C3E88F2F17
:103B300081F31088002400250B4E3078FCF760FEDE
:103B400020B9002400252046294670BD3078FCF7B6
:103B500067FE2046294670BD4FF47A740025EBE7D6
:103B6000A07D0020757F0020747F0020014B187815
:103B7000FCF756BE747F0020F8B5074600200E46BD
:103B800001F0EEFAB8B3002001F000FB98B3FDF7A6
:103B9000D9FC0022194BC41841EB0205002C75F129
:103BA0000003BCBF4FF0FF346FF0004522462B46A8
:103BB000134812F0D5FEF0B1002001F0D1FA58B947
:103BC00000214FF0FF3000F01DFD6FF002040C48A3
:103BD00012F08EFE2046F8BD002001F0D7FA002832
:103BE000EED032463946002001F0DCFA041E08BF50
:103BF0006FF00204EBE76FF00204EBE740420F00C6
:103C0000787E002038B5FDF79DFC0022104BC418CB
:103C100041EB0205002C75F10003BCBF4FF0FF34EF
:103C20006FF0004522462B460A4812F099FE70B10B
:103C30004FF0FF30002100F0E5FC002001F0FAFA1F
:103C40000028F5D1BDE83840024812F051BE38BD19
:103C500040420F00787E00202DE9F04F83B00646E9
:103C60000D46FDF76FFC0022384B10EB030A41EBC9
:103C7000020BBAF1000F7BF10003BCBF4FF0FF3A1B
:103C80006FF0004B52465B46314812F069FE10B9A6
:103C900003B0BDE8F08F002001F062FA00284AD09E
:103CA000002D42DD00242B4FA34613E002460020E6
:103CB00001F004FB002182464FF0FF3000F0A2FC2F
:103CC000002001F0B7FAFDF73DFCC7E900015444BC
:103CD000A5422ADD002001F013FB2A1B9042A8BF59
:103CE0001046311982460028E0D101464FF0FF30DE
:103CF00000F088FC504601F09DFA504601F030FA81
:103D000098B1504601F0FCFA0028E1D1FDF71AFC09
:103D1000D7E900320192104A13EB0208019A42EBF4
:103D20000B09894508BF8045D2D2094803B0BDE8D8
:103D3000F04F12F0DDBD00200021064BC3E9000169
:103D4000034803B0BDE8F04F12F0D2BD40420F006F
:103D5000787E0020806F002020A10700F0B50021B0
:103D600085B02E4812F0D4FD00BB2D4B1A68DAB195
:103D7000EFF3108172B6D2E8CF7F0126002FFAD17F
:103D8000C2E8476F002FF6D1BFF35F8F4FF0010CF1
:103D9000244E1F6832785960D2B286F800C0C7E856
:103DA0008F0F81F31088CAB105B0F0BD00214FF02C
:103DB000FF3000F027FC002001F0E8F90446174826
:103DC00012F096FD002CEFD0174B1B68002BEBD0A8
:103DD000164A106805B0BDE8F0401847FDF792F9A3
:103DE0000646FDF7AFFB10F57A7441F10005002C93
:103DF00075F10003BCBF4FF0FF346FF000454FF08A
:103E0000010C00270A4922462B463046CDE9017CA9
:103E10000091FDF77BF905B0F0BD00BF787E002072
:103E2000A07D0020757F0020CC740020D07400207D
:103E3000FD3A00104FF05043F0B585B01C68FDF717
:103E400061F9FDF76FFAA04202D0002005B0F0BD85
:103E500000212A4B08461B7801F096FD284803688C
:103E6000002B47D00120FCF785FE0346254C264950
:103E7000C0B22370FCF7F2FC20780121FCF7AAFC09
:103E80000E20FCF7DBFC40BB204B0025C3E9000003
:103E9000FDF738F90446FDF755FB10F57A7641F148
:103EA0000007002E77F10003BCBF4FF0FF366FF024
:103EB00000474FF0010C164932463B462046CDE9FB
:103EC000015C0091FDF722F9A842BEDB01211148F7
:103ED000FFF766FC012005B0F0BD0120FCF732FCC5
:103EE00001460A48FCF7A8FE00220E200A49FCF70A
:103EF000E5FCEBE7FCF784FEB4E700BF3483011078
:103F0000787E0020747F00205D3D0010A07D0020A1
:103F1000FD3A0010081B00206D3B00100048704760
:103F2000946E011000487047406E011038B51B4B6D
:103F300004461A784AB174B940F209424FF4417309
:103F4000174D17486A802B8038BD1846112100F0A4
:103F500043F8002CF0D0052C1DD8124B104D53F80F
:103F6000241028460023013903E0132B20F8022FE8
:103F70000CD011F8012FDCB20133002AF5D1631CFB
:103F80005B0043F4407306482B80DDE74FF44A732F
:103F900003482B80D8E7002038BD00BF047F0020F5
:103FA000E4780020A86E011000B545F247308BB0D0
:103FB000FDF73AFC01220346092101A89847DDE9F3
:103FC0000332044912BA1BBAC1E900230BB05DF8F1
:103FD00004FB00BFD87D0020013900F0A18010B49F
:103FE000514A13781C119F2B8CBF37343034012970
:103FF000047000F08F8003F00F03092BCCBF373320
:1040000030330229437000F0858053781C119F2BB8
:104010008CBF37343034032984707BD003F00F0316
:10402000092BCCBF373330330429C37072D0937857
:104030001C119F2B8CBF373430340529047169D093
:1040400003F00F03092BCCBF3733303306294371FC
:1040500060D0D3781C119F2B8CBF373430340729A4
:10406000847157D003F00F03092BCCBF37333033A3
:104070000829C3714ED013791C119F2B8CBF373484
:1040800030340929047245D003F00F03092BCCBF4B
:10409000373330330A2943723CD053791C119F2B9C
:1040A0008CBF373430340B29847233D003F00F03C4
:1040B000092BCCBF373330330C29C3722AD0937904
:1040C0001C119F2B8CBF373430340D29047321D041
:1040D00003F00F03092BCCBF373330330E29437362
:1040E00018D0D3791A119F2B8CBF373230320F2959
:1040F00082730FD003F00F03092BD4BF3033373353
:104100001029C37318BF103004D000235DF8044B8E
:1041100003707047002308445DF8044B0370704738
:1041200000230370704700BFD87D0020F8B500F071
:1041300037F90C2340271A4D1A4CAB67FF220E208B
:104140001949FCF7BBFB3A462046002110F0CEFD92
:10415000012600238022154815496670638003609C
:104160000B606284134A27832787E376636084F8B1
:10417000213084F83B306362A060A162E260E262B9
:1041800012F0DEFB4FF000544FF480320A490B4B23
:104190002E643046EC64C5F89010DA64F8BD00BFB8
:1041A000000011506C790020C103002084001050E1
:1041B000800010500001105010D00100002011505C
:1041C00001210E20FCF706BB00220248114600F038
:1041D00007B900BF8C790020044B197021B14FF44E
:1041E0000032034BC3F89020704700BF697F002066
:1041F000002011500B785B0602D14B78052B00D0C4
:1042000070474B88014ADBB21360704700001150C1
:10421000CB782DE9F04103F00307012FC3F3010030
:1042200067D04FF0000C8C78364D04F07F025600BA
:1042300006EBD413898805EB43139C70E409C1F3A2
:104240000A01D87684F001001983587083F803C0FE
:104250009CBB04232C4803EBC20303EB000805EBD3
:10426000821ECEF8088043F800C0002A38D0274BC1
:10427000D2001344CEF804303F31022F21F03F0129
:104280003AD0234A234813683719194405EB4717D6
:1042900081421160FB6031D8344405EB4414E27E66
:1042A00083F0A04383F4801343EA8263626843F09F
:1042B000004301201360BDE8F081134805EB821E26
:1042C00000EBC20813B2CEF8288040F833C03AB1F0
:1042D000D20002F1A04202F58012CEF82420CBE7F2
:1042E00000220D4B05EB441401206260E360BDE841
:1042F000F0810020BDE8F0814900C2E7FDF7E0FA57
:10430000FB68C9E76C790020800010500400105051
:10431000887D0020FF0F10500001105012F010BBDC
:10432000084610B501F07F01054CC00900EB4100C3
:1043300004EB401011461A4600F052F8012010BD5F
:104340006C79002011F07F0308BF084A4FEAD111B1
:1043500004BFC1F102009066054801EB430100EB88
:1043600041104FF40062002112F03ABB00201150BE
:104370006C79002030B411F07F0401D130BC70475B
:1043800000226300054803EBD11100EB41131846EE
:1043900030BC6FF40061DA7012F022BB6C7900203F
:1043A0004FF0805209480A4908B50A4B02600A607A
:1043B0001968C94311F08051FAD14FF48052064870
:1043C00010F094FC0922054B5A6708BD00200240FA
:1043D0000030024008000240000010500000115060
:1043E000837E10B50446BBB9002001232161E08221
:1043F000A282A37604F11B01A01C12F081FA20B165
:104400004FF40032084BC3F89020204612F0C0FA57
:1044100028B10123237710BD12F0D2FAE4E7204639
:10442000BDE8104012F0ACBA002011502DE9F04167
:1044300000241C4D804623461B4F2A781B4E0DE05E
:10444000336813EB441325D0DB68404698472A783D
:104450000134E4B2511CA142234606DBA242A3EB85
:104460000203EDD807EB4313EEE7114B5422184635
:10447000002110F03BFC4FF0FF340346051DC5E959
:104480000144EC605C602022BDE8F041FF21143063
:1044900010F02CBC074B1B68DB0700D500BEBDE845
:1044A000F08100BF687F00201C6F0110D86F0020D2
:1044B00088710020F0ED00E0704700BF704700BF3A
:1044C0000020704700207047704700BF704700BF52
:1044D000704700BF704700BF024B5878003818BFC4
:1044E0000120704788710020024B1878C0F38000CB
:1044F000704700BF887100202DE9F047DFF8FC808D
:1045000098F80030FF2B4BD10D4600294CD00021EC
:10451000542207462F4810F0E9FB00222E4E2F4B65
:104520002F4C30461A70FCF76BFB2E4B04F1140035
:104530001E60FCF773FB204601F0ECFD2A4A2B4B72
:10454000146023B12A48FFF7BBFA2A4B18600024F5
:10455000274E2346DFF8A8A03278DFF898900EE0C7
:10456000D9F8003013EB441311D05B687BB1984746
:1045700032780134E4B2511CA14223461CDBA24232
:10458000EED89B1A0AEB43135B68002BEFD11A4B52
:104590001B68DA0700D500BE00252846BDE8F08775
:1045A00001252846BDE8F087134B1B68DB07F3D5D0
:1045B00000BE2846BDE8F0872946384688F80070D6
:1045C000FFF7B4FD05460028EED03846FFF7F8FDAA
:1045D000E7E700BF88710020807100206A7F00201B
:1045E0001C1B0020DC710020E0710020C13A00108B
:1045F000687F0020D86F0020F0ED00E0381B00201D
:104600001C6F01102DE9F04FAD4F8BB03B78FF2BA5
:1046100000F0EC80AB4CDFF8BC92DFF8C0A2DFF812
:10462000C0B225686B69EFF3108272B6D3E8CF0F82
:1046300001210028FAD1C3E8401F0028F6D1BFF3BA
:104640005F8FAA61284607A901F0CEFB00236A69A3
:10465000C2E88F3FAB6983F31088002800F0C68062
:104660009DF81D30013B072B00F29183DFE803F03A
:10467000A2AD8E9786360A04089B002BD1D00998EC
:104680009847CEE79DF820108F4B01F07F0503EB94
:10469000450303EBD11393F834006FF3000083F864
:1046A000340093F834006FF3820083F83400002D57
:1046B00000F09F80854A1B7D1278934280F08E80A7
:1046C000DBF8002012EB431300F08B809D699DF80E
:1046D0002120099B9DF81C00A847A2E77C4A13787B
:1046E000002B7ED01378013BDBB21370137803F0FC
:1046F000FF00002B95D1744D9DF81C802B7843F062
:1047000001032B7095F8343060F3000385F83430E2
:1047100095F8343060F3820385F8343095F83530FD
:1047200060F3000385F8353095F8353060F3820387
:1047300085F8353000F07AFC9DF8203003F06002F7
:10474000602A0BD0402A60D003F01F03012B00F039
:10475000C980022B00F08680002B62D0D9F800308F
:10476000DD0700D500BE9DF81C000021FFF7EAFD23
:1047700080219DF81C00FFF7E5FD52E7524B1B78A6
:10478000D9077FF54EAFFFF7A5FE4AE74E4BDB7822
:10479000DA077FF546AF0898FFF790FE41E74A4BEE
:1047A0001A78D0077FF53DAF1878C0F3C000FFF747
:1047B0008FFE36E79DF81C00FFF738FE00F02CFC5A
:1047C000414B9DF820209A702BE79DF81C00FFF7C5
:1047D0002DFE00F021FCFFF779FE22E7501C9842E5
:1047E0000FDA3C4B1B68DC0700D500BE0BB0BDE800
:1047F000F08F099B9DF821209DF81C0000F02AFCF9
:104800000FE79B1A0AEB431360E7334800F00EFCF6
:104810004046012108AAFFF73FF900287FF401AFC5
:10482000A1E7202A00F09281002A97D19DF821303B
:10483000092B93D801A252F823F000BFEB4A0010D5
:10484000CF4A00105D4700100D4B00105D4700106F
:10485000B54A0010614A00105D4700104B4A001035
:10486000734900109DF8241011F0700F7FF476AF9B
:1048700001F07F0C154805EB4C0303EBD1131E7DB3
:1048800003784FEA4C0001909E424FEAD11000900D
:104890005DD3581CB042C0F27681F61A0AEB461678
:1048A000002A00F07481706900F0C0FB40460121CD
:1048B000736908AA984700287FF4B3AE53E700BF96
:1048C000381B0020E071002088710020687F0020E4
:1048D0006A7F0020F0ED00E0993A00101C6F011093
:1048E000D86F00209DF824300F2B3FF63CAFCC4A08
:1048F0002B441B791578AB4234D36A1C9A42FFF6DD
:1049000032AF5B1B0AEB4315686900F08FFB012196
:1049100040466B6908AA984700287FF482AE9DF84C
:10492000205015F060057FF41EAF9DF821300A3B42
:10493000012B3FF618AF00F079FB9DF821300A2BD0
:1049400000F0F881404608A900F0EEFA69E6DBF8CD
:10495000003003EB4616002A00F01981002E3FF4C8
:1049600002AFA0E7DBF8005015EB43153FF4FBAEB8
:10497000CAE79DF822206B789A4200F055816B7847
:10498000002B40F0C3816A70002A00F04B81501E5A
:10499000C0B2FFF7C7FA002800F067814378022B06
:1049A00040F06381C2792978C2F340131B01C2F33E
:1049B000801243EA421321F0300213432B704388E4
:1049C00000F10901C3180193CDF80C80019B8B42C3
:1049D00040F2AB814A780B2A00F0B6810123042A09
:1049E00040F043814FF00008019ACDF80080501A42
:1049F0008B4A80B21278029004931EE0DBF80060CC
:104A000016EB481600F031813369029A039805913C
:104A1000984708280246059908F1010303D902982E
:104A2000904280F006815FFA83F87D4BCDF80080DC
:104A30001A78531C984500F31881009B9045A3EB0E
:104A40000202DBD30AEB4216DEE76D784046012313
:104A50000DF11A0208A98DF81A5000F07FFAE0E56E
:104A6000BDF82200030A5A1EC0B20E2A3FF67BAEE2
:104A700001A151F822F000BF934C0010294B001007
:104A8000CF4C00106747001067470010B14C001072
:104A9000294B001067470010674700106747001058
:104AA000674700106747001067470010674700100E
:104AB000854C001008A800F0BFFA40469DF822106F
:104AC000FFF782FB2B7843F002032B70A9E5BDF8BA
:104AD0002230012B7FF447AE2B7840466FF3C3039F
:104AE00008A92B7000F020FA9BE540462B789D0822
:104AF00005F00205C3F340131D4302230DF11A0212
:104B000008A9ADF81A5000F029FA8AE5BDF822305C
:104B1000012B7FF428AE2B78404643F0080308A908
:104B20002B7000F001FA7CE5022B00F01281FFF7F8
:104B3000C9FC024600283FF416AE4046538808A937
:104B400000F00CFA00287FF46CAD0CE69DF82430E0
:104B50000F2B3FF608AE324A2B441B791578AB4237
:104B600028D2DBF8005015EB43153FF4FCAD686923
:104B700000F05CFA404601216B6908AA98470028BA
:104B80007FF44FADEFE5002A7FF4EDAD00269DF8F0
:104B9000212002F0FD03012B14D0002A7FF4DEADAA
:104BA000019B009A2B44134493F834504046C5F3BC
:104BB0004005A2E76A1C9A42FFF6D5AD5B1B0AEBE3
:104BC0004315D4E7BDF82230ABB9012A00F0878045
:104BD0003878FFF7B7FB019B009A2B44134493F8F6
:104BE000342042F0020283F8342093F8342042F05B
:104BF000010283F83420002E3FF413AD706900F0F9
:104C000015FA7369012108AA40469847002000F070
:104C10000DFA95F83530DE073FF503AD92E600BF9B
:104C2000687F0020FFF752FC404608A900F07CF99D
:104C3000F7E4049B012B00F0A480002B00F090808F
:104C40008E780020029604E0634586F8048040F2E6
:104C50008780029E064455FA86F696F804E00130F5
:104C6000BEF1FF0F5FFA80FCEED0D9F80030DA0712
:104C700000D500BED9F80030DB0700D500BE002308
:104C80006B7070E5FEF704FF024600287FF455AF15
:104C900069E5FFF743F9024600283FF45FAD40465F
:104CA000122308A900F05AF900287FF4BAAC5AE59B
:104CB000FFF706FC024600283FF455AD4046137846
:104CC00008A900F04BF900287FF4ABAC4BE5BDF828
:104CD0002410FFF72BF902460028EFD143E538787E
:104CE0000293FFF747FB019B2B441A46009B1A4493
:104CF00092F83410029B63F3410182F8341092F869
:104D0000341063F3000182F8341074E70021404648
:104D10000092FFF761FA4046FFF700FBAE7840468D
:104D2000FFF784FB009AAE702DE6DDF80C80FFF7EC
:104D3000CBFB79E74046012308A90DF11A028DF853
:104D40001A5000F00BF96CE40A78CB7811444A78D9
:104D500045E6FFF7E7F8024600287FF4EEAEFDE4F3
:104D600043460E480492029100F0BEFE0C4B049A9A
:104D700002991B781144009A01339342BFF626AE84
:104D800073E73069074EB04208BF022358E7D9F8ED
:104D90000030DB077FF545AC00BE42E49C7100208B
:104DA000687F0020F95300102DE9F84F0A9F002A70
:104DB0003CD00C461E4615464FF0000ADFF87890AE
:104DC000DFF8788018E0204698F8021099F800B0D3
:104DD00000F056FEE0B158462146FFF719FAE0B15F
:104DE000A2780AF1010AD30916BF0B9B3A701A7018
:104DF0002278AA45144419D06278052A0DD1E178A9
:104E000001F00301B14208D1A27812F0700FDAD09C
:104E1000084B1B68DA0700D500BE064B1B68DB0792
:104E200002D40020BDE8F88F00BEFAE70120BDE8FB
:104E3000F88F00BFF0ED00E0381B002088710020E3
:104E400038B58B7813F0700F06D00B4B1B68DB075F
:104E500000D500BE002038BD0C46084A084B20464D
:104E600091781D7800F00CFE0028EED021462846EF
:104E7000BDE83840FFF7CCB9F0ED00E088710020C4
:104E8000381B0020CB090548054A343301F07F0167
:104E900003EB41010844116800F0ACBD88710020AB
:104EA000DC710020CB090548054A343301F07F014D
:104EB00003EB41010844116800F0C6BD8871002071
:104EC000DC71002038B5154801F07F0500EB450086
:104ED00000EBD11494F834003034C00706D5104BE1
:104EE0001B68DA0700D500BE002038BD25790D48C3
:104EF00045F0010500782571FFF712FA0028F4D17A
:104F00002379074A60F300032371237960F3820356
:104F100023711368DB07E7D500BE38BD8871002018
:104F2000F0ED00E0381B002070B40B4D0A462C4613
:104F30000023064608684968AB6003C492F9002064
:104F400030469A42EB60A8BF802170BCB8BF1946BA
:104F50001A46FFF7B7BF00BF687100202DE9F04186
:104F60002A4D0C462E460027496880462068AA60D4
:104F700003C6EF81E68882B0B34228BF3346AB81D7
:104F8000B6B133B36AB395F90010402B28BF402364
:104F900000292EDB39461E4A4046FFF793FFA0B991
:104FA0001C4B1B68DB0720D500BE02B0BDE8F081BA
:104FB00094F900304046002BACBF802100213346DD
:104FC0003246FFF77FFF0028EAD0012002B0BDE89B
:104FD000F08195F900101A460029ACBF19468021CE
:104FE000DAE70C4B1B68D9070DD4002002B0BDE8EE
:104FF000F081114606481A4601930FF097FD802173
:10500000034A019BC8E700BE1046DFE76871002035
:1050100028710020F0ED00E00022034BC3E90022DC
:10502000C3E902221A61704768710020014B1861C0
:10503000704700BF6871002030B40246044C002560
:10504000234600685168A560E56003C330BC704723
:1050500068710020F0B53F4CC90925781F46B1EBB7
:10506000D51F064683B01FD03BB13B4B1B68DA0708
:1050700000D500BE002003B0F0BD2146FFF7BAF80E
:10508000236973B12246304603219847012003B0BB
:10509000F0BD01463046FFF755F930468021FFF755
:1050A00051F9012003B0F0BD94F90020002A06DB7D
:1050B000A0680028DED01A4628490FF037FDE589A0
:1050C000A168E2883D44ADB23944AA42E581A160BD
:1050D00016D03F2F14D9A28994F90000531B9BB21C
:1050E000402B28BF4023002825DB95424FF00001CC
:1050F0002DD01A4A3046FFF7E5FE0028D1D114E042
:1051000023692BB102213046124A98470028C0D0AB
:10511000002394F9002030469A42ACBF8021194602
:105120001A46FFF7CFFE0028BBD10B4B1B68DB07ED
:10513000A0D500BE9FE7954208D01A4607480193C4
:105140000FF0F4FC8021054A019BD3E78021002267
:10515000D0E700BF68710020F0ED00E0287100206A
:1051600010B50446FFF7B8F908B9002010BDFFF7E5
:10517000BBF90028F9D1C823034803FB04000079D8
:1051800000F0010010BD00BF60700020C82208B50B
:10519000034B02FB0030103000F0FAFD08BD00BFE9
:1051A000607000202DE9F8434FF6FE754FF6FF734F
:1051B000C826AA4288BF1A46DFF87480044606FB58
:1051C00000851035284692B200F058FE0746FFF7DA
:1051D00083F910B93846BDE8F883FFF785F98146B1
:1051E0000028F7D106FB0486F378002BF2D028467E
:1051F00000F0E8FD3F28EDD94846F178FFF742FE80
:105200000028E7D0284600F0DDFD3F2808D9074AEE
:1052100048464023F17802EBC412FFF753FED9E76A
:105220004846F178FFF73EFED4E700BFDC6F002070
:10523000607000202DE9F0410546FFF74DF910B9E7
:105240000020BDE8F081FFF74FF907460028F7D1AD
:10525000C826DFF8648006FB05842434204600F06D
:1052600097FD0028ECD006FB05863846B178FFF79D
:1052700009FE0028E4D040220D4902EBC5150D447B
:105280002046294600F0FAFD044660B12A46384619
:105290002346B178FFF716FE40B9064B1B68DB07C3
:1052A000CED500BECDE7B178FFF7FCFD2046C8E7BC
:1052B000DC6F0020F0ED00E06070002070B54FF66C
:1052C000FF734FF6FE76C824B24288BF1A460B4BD6
:1052D00092B204FB003424340546204600F07CFEE4
:1052E000034620461C4600F053FD3F2801D82046C7
:1052F00070BD2846FFF79EFF204670BD60700020FD
:10530000C82208B5034B02FB0030243000F05AFDE0
:1053100008BD00BF607000200021F0B5194C83B0BB
:10532000C82220460D460FF0E1FCFF204FF4E13388
:105330000822154E009504F138016071A360A27334
:1053400035700123402204F11000A58100F0EEFC2D
:105350000123402204F17801009304F1B80704F11D
:10536000240000F0E3FC04F1C0063846FBF748FCDB
:105370003046FBF745FC27622663E561656303B0B1
:10538000F0BD00BF607000205C700020064B1A6A00
:10539000196B12B10022C3E9072211B10022C3E93F
:1053A0000C220120704700BF60700020002210B561
:1053B0000E4C0F48237802600271DA0707D59B076D
:1053C0000BD5BDE8104001210A4800F0BFBE1030E7
:1053D00000F0A0FE23789B07F3D4064800F09AFE65
:1053E000BDE810400121034800F0B0BE5C70002011
:1053F00060700020847000202DE9F0414B7982B06C
:10540000022B02D18B79022B04D00025284602B052
:10541000BDE8F081364FBB782BB1364B1B68DB07FC
:10542000F3D500BEF1E78B7806463B700C78092572
:105430000C44617824290BD1082A02D80FE0AA4233
:105440000DD323781C4461782B4424299DB2F6D0D7
:10545000052927D0042902D163790A2B30D0FFF720
:105460003BF80028D2D0FFF73FF804460028CDD102
:10547000FB78002BCAD0204800F0A4FC3F28C5D9F7
:105480002046F978FFF7FEFC0028BFD01A4800F04C
:1054900099FC3F28F978204627D94023174AFFF77F
:1054A00011FDB3E721463046FFF7CAFC0028B4D00F
:1054B000A3787B7023781C442B4461789DB2C9E7A4
:1054C00002230F4A94F80080511CCDE900123046A7
:1054D0001A4604EB0801FFF767FC00289DD005F190
:1054E0000E0318FA83F39DB2B9E7FFF7DBFC8DE7F3
:1054F00060700020F0ED00E070700020DC6F002094
:1055000062700020137803F06003202B07D170B580
:10551000274C938825789D4203D0002070BD002041
:1055200070475378203B032BF7D8DFE803F028249B
:105530000D02012930D003291FD11E4BEBB10020F1
:10554000518800E000BF18E0012925D0032914D1BB
:105550005588194805F0010686F00101257100F013
:10556000F5FD164B4BB131460020C5F3400200E07B
:1055700000BF012070BD012913D0012070BD012999
:105580000FD00329F9D10E4B002BF6D000200D4986
:10559000FEF79EFA012070BD1146FFF7C5FC012001
:1055A00070BD11460723074AFFF7D8FC012070BDE4
:1055B00060700020000000008470002000000000E7
:1055C000D13A0010687000202DE9F0475C4E0C467F
:1055D000F27807468A421D4654D1DFF884819AB298
:1055E000414606F1100000F0F7FC564BC3B1737949
:1055F000FF2B15D0A5B106F1100908EB050A02E052
:10560000C2450DD0737918F8012B9A42F8D148465B
:1056100000F0CEFB0028F3D1717900E000BFEFE786
:10562000494B23B1494800F0C3FB00285CD0FEF78A
:1056300053FF00285BD1B3789C4203D0012420465D
:10564000BDE8F087424B13B1002000E000BFFEF739
:1056500043FF20BB3F4800F09BFB0028EED1002D0C
:10566000ECD015F03F05E9D13846B178FFF70AFCD8
:1056700004460028E2D038462B462A46B178FFF788
:1056800021FCDCE7B3788B42DCD0334B1C6814F090
:105690000104D4D000BE00242046BDE8F087FEF708
:1056A00023FF04460028D5D12A4800F071FB0028CA
:1056B000D0D02046B178FFF7E5FB0028CAD04022C1
:1056C0002649244800F0DAFB034600282FD0204664
:1056D000224AB178FFF7F6FB0028AFD11E4B1B68BA
:1056E000DB07B7D500BEB5E700E000BF9FE7FEF7D8
:1056F000FBFE804600289ED1F378002B9BD01348F8
:1057000000F060FB3F2896D94046F178FFF7BAFBDE
:10571000002890D00D4800F055FB3F2840460AD99C
:1057200040230F4AF178FFF7CDFBB37884E7B178D7
:10573000FFF7B8FB8EE7F178FFF7B4FB7BE700BF1C
:105740006070002000000000000000007070002069
:105750000000000084700020F0ED00E01C700020CC
:10576000DC6F0020F0B5144C85B04FF41372204666
:1057700000210FF0BBFA402700234FF480760F4D35
:1057800004F5A6721946009202951A4604F5947023
:105790000397019600F0C4F9002304F128023D4468
:1057A000CDE9002619460122CDE90257201D00F05F
:1057B000B7F905B0F0BD00BF64720020E4710020AD
:1057C00010B5054C04F5947000F0D6F9201D00F0DA
:1057D000D3F9012010BD00BF6472002038B5002548
:1057E000064C04F59870257000F094FC04F10C0050
:1057F00000F090FC84F82951657138BD6472002076
:105800002DE9F84F4B79FF2B50D1384D0C7895F896
:1058100029316E790C441E430F4604EB020B45D12F
:105820008A780B792A70002B3CD0804605F5987950
:1058300005F10C0A6378052B09D0A34502D831E0A5
:105840005C452FD223781C446378052BF8D1A345FF
:1058500028D921464046FFF7F3FA00283FD0A37825
:10586000DB0926D1484600F055FCA37895F828219D
:1058700085F82931A3884046C3F30A03A3F50073D2
:10588000B3FA83F35B0963F34102194985F82821D0
:1058900000F0E2F918B33A7901362178F3B29A426E
:1058A0000C44C7D8E01B80B2BDE8F88F0020BDE8EB
:1058B000F88F504600F02EFCA3782A796B71A388EC
:1058C0000C49C3F30A03A3F50073B3FA83F35B092E
:1058D00063F3410200202A7100F084F9DBE7064BF4
:1058E0001B68DB07E2D500BEE1E700BF6472002061
:1058F0008C73002068720020F0ED00E0F8B51C4CBD
:10590000074694F829511E468D4217D1B4F8343118
:1059100063B9184B23B100201749B2B200E000BFB1
:105920003846164900F098F90120F8BDD4F82C113A
:10593000B2B204F5987000F04FFBEAE763798B424E
:1059400001D00020F8BD0E4B1BB10020B1B200E029
:1059500000BF38460B4900F045F908B10120F8BDF9
:1059600032463846074900F009F90120F8BD00BF6A
:105970006472002000000000E47100208C7300209D
:10598000000000006872002010B582B099B10128B3
:1059900008D80B7833B1154C012B23541CD00120AF
:1059A00002B010BD124B1B68DA0702D4002002B00F
:1059B00010BD00BEFAE70124084601A9ADF8044075
:1059C000FEF79AFD28B90A4B1B68D907EFD500BE30
:1059D000EDE7064B1C70EAE7FEF78EFD0028DED1EE
:1059E000034B1B68DB07E1D5F1E700BF7C710020AA
:1059F000F0ED00E0F8B5037813F001041AD1037854
:105A000005465A07C3F3800701D52046F8BD0E4668
:105A10004FF0FF31304610F083FF2B7813F0010474
:105A20000BD12B785B0709D42B78012443F00403B6
:105A30002B7003E000242046F8BD3C46304610F0B1
:105A400057FF2046F8BD00BF70B504460D46084616
:105A50004FF0FF3110F064FF2378C3F380065B073B
:105A600008D5237813F0010211BF0026237862F3D2
:105A700082032370284610F03BFF304670BD00BF04
:105A8000C378828803F003000228C2F30A0205D01B
:105A9000032819D0012807D00020704702291CD004
:105AA000402A09D801207047022940F2FF3308BF7D
:105AB0004FF480639342F6D20A4B186810F001004D
:105AC000F1D000BE0020704702290CBF4FF4806364
:105AD00040239342F0D30120E5E7B2F5007FE1D007
