:020000041000EA
:10000000002008205D0100101301001015010010F0
:100010001101001011010010110100101101001058
:100020001101001011010010110100101701001042
:100030001101001011010010190100101B01001026
:100040001D0100101D0100101D0100101D010010F8
:100050001D0100101D0100101D0100101D010010E8
:100060001D0100101D0100101D0100101D010010D8
:100070001D0100101D0100101D0100101D010010C8
:100080001D0100101D0100101D0100101D010010B8
:100090001D0100101D0100101D0100101D010010A8
:1000A0001D0100101D0100101D0100101D01001098
:1000B0001D0100101D0100101D0100101D01001088
:1000C0001D0100101D0100101D0100101D01001078
:1000D0001D0100101D0100101D0100101D01001068
:1000E0001D0100101D0100101D0100101D01001058
:1000F0001D0100101D0100101D0100101D01001048
:100100001D0100101D0100101D0100101D01001037
:1001100000BE00BE00BE00BE00BE00BEEFF3058004
:10012000103800BEF2EB8871700B06109C0B0610A5
:10013000A801001090A31AE7D3DEFFFF42012110AF
:10014000FF010000F8330600793512AB4FF00000D4
:100150002049086006C881F3088810474FF05040D6
:10016000006810B14FF00000F2E70FA40ECC002998
:1001700002D000F015F8F9E71749184A002000E00E
:1001800001C19142FCD1002080F30A8814498847BC
:10019000144988471449884700BEFDE701C901C2D8
:1001A0009A42FBD3704700BF9C0B06102001002031
:1001B000B42A002030350610000008200000082076
:1001C0003035061000100820001008200000000044
:1001D0007047000008ED00E0B42A0020C8BE0120EE
:1001E000013C0010F1030010F93B0010F8B500BF0E
:1001F00010B5054C237833B9044B13B1044800E023
:1002000000BF0123237010BD6072002000000000B9
:100210007862021008B5034B1BB10349034800E0A4
:1002200000BF08BD00000000647200207862021068
:10023000F0B5002502462C4B89B019682B4C00956F
:100240004FEA114CADF81C10D2E900670323482196
:10025000206807AA8DF81EC015F09CFC032817D053
:1002600000200021224CCDE90201CDE900672046A3
:100270008021204A03F026FC802305461E490022E7
:100280001E48C1E901530C6015F078FD09B0F0BDBE
:10029000012001F05BFB01230093482120680DF150
:1002A00017028DF8175015F075FC0128D8D100956C
:1002B00002234821206806AA15F07AFC0228CFD133
:1002C0009DF818209DF819309FED0D7A43EA02231E
:1002D0001BB207EE903AF8EEE77A67EE877A17EEF0
:1002E000900A25F0F9FEBDE7B4620210A01C0020C0
:1002F00028CA002078620210E8C90020A8CA00209D
:100300006F1203392DE9F0411E4F88B03D4602A817
:1003100002AC16F057FC0FCC0FC500221A4E206815
:100320001A4C3B4611462860304616F045FB3346D2
:10033000174A1849204616F089FB17F041FB214661
:100340000246154B154816F0BBFB17F051FBDFF8C2
:100350006080134D024621464046124B16F0E4FBE6
:100360003B4631462846012216F0C2F8002341469A
:10037000009328460C4B0D4A16F01AF908B0BDE858
:10038000F08100BFD4C90020F4C90020C0C90020FA
:10039000BC090610B8620210C4620210A8CA00208C
:1003A00030C90020D462021031020010C8C90020F8
:1003B000D0C9002008B50C4B0C49186815F0C4FBD7
:1003C0000321042000F07CF90321052000F078F9D6
:1003D00000220121042000F08FF9BDE8084000222E
:1003E0000121052000F088B9A01C0020801A060019
:1003F000D0B582B003F020FD45F2553010F034FC4A
:100400000121002010F036FC10F0DEFB002117481F
:1004100014F0C4FB42F21073154A1649164810F046
:10042000DFFBFFF7C7FF154A154B0020CDE900326F
:100430001449154B154A16F073FC3C2401E0013CAD
:1004400011D001214FF47A7016F084FC0028F6D107
:10045000FFF758FF00270E4E0E4C32463B46204613
:1004600016F026F9F9E702B0D0BD00BFFCB40120B8
:1004700004004000A41C0020B01C0020FD0500105A
:1004800095050010BC860020790500103905001084
:100490008096980030C90020F8B5144618B11A6843
:1004A00043689A4204D02046BDE8F84007F0B0BD4A
:1004B0000F4D104B2E7829784FF4007203EB412139
:1004C0002046002307F0ACFE01360B4B06F01F065A
:1004D0002F782E7029781A78084D914225F8170048
:1004E000E1D11A78013202F01F021A70DBE700BF77
:1004F00026C900202C88002027C90020EC87002076
:1005000070B50C4601F0BEFA00230A4A06460D46B5
:1005100025F0CAFD0023C4E90001064A30462946F9
:1005200025F0C2FD4FF47A7303FB02F20020A260B3
:1005300070BD00BF40420F0010B5D0F88C420CB91E
:10054000204610BD14F0A2FF0BF070FF214641F8C9
:10055000040B074810F080F942F2C32320682246BA
:10056000044923810BF044FF14F098FF012010BDD3
:10057000E46202109904001010B5D0F88C4234B136
:1005800014F084FF20680BF037FF14F087FF012080
:1005900010BD00BF2DE9F04116460D461F46D0F8AC
:1005A0008C8214F073FF4FF420723620B1B207F042
:1005B000D7FB0446C8B129463246406823F0A8FE5E
:1005C0004246214652F8040BB8F808300BF0A2FE60
:1005D0000546204607F01CFD14F060FF15B101230D
:1005E00000263B703046BDE8F08114F057FF012330
:1005F00026463B703046BDE8F08100BF01202DE962
:10060000F84F1C460A9B934618708A4601F03AFA46
:100610004FF47A7324EAE472C3FB0201234E244FA1
:10062000002871F1000332783B78B9BF4FF0FF38F2
:100630006FF00049804689469A4218D1002C0DDDA2
:100640004D461C4C6420002101F06AF9636A9D420A
:1006500009D8A26A424501D29D4204D04FF0000B56
:100660005846BDE8F88F32783B789A42EAD014F0C9
:100670000DFF3278104B317833F812200F4B934531
:1006800028BF934603EB41215A46504623F040FED3
:100690003378013303F01F03337014F0FFFE00239F
:1006A0000A9A58461370BDE8F88F00BF27C900208A
:1006B00026C9002000000B40EC8700202C88002079
:1006C00030B44FF480750B4BC20053F8204003EB5D
:1006D000800084F0400402F1804303F5203304F0ED
:1006E000C00200F5805400F540502260596005605A
:1006F00030BC704704800340002915BF0823002345
:100700000C210421002A08BF1946064B53F820206B
:1007100003EB80004A4002F00C0200F580531A609F
:10072000704700BF04800340022221B1044B904077
:1007300003441A607047034B904003441A607047AB
:1007400004A0034004B003404FF0504330B41D6890
:100750000D4C0E4B002D08BF234600F00704A400EB
:10076000C0080B4DA14000F18C0445F8241003EBA8
:10077000800322B130BC03F500531960704703F5C4
:100780004053196030BC704748820240908202405A
:100790000080024070B54FF05046044633680C4D5F
:1007A00082B055F82300204208D10443152045F8B3
:1007B000234002B0BDE8704000F0CEB9CDE9001290
:1007C00001F0B6FBDDE90012336855F82300ECE7D1
:1007D0000087002010B50446152000F0BBFA4FF04A
:1007E0005043044A196852F8213023EA040342F8BE
:1007F000213010BD0087002030B4002343EC4400BA
:1008000043EC400005254FF480740B4BC20053F8B5
:10081000201003EB800081F0400102F1804303F5DA
:10082000203301F0C00200F5805100F540500A600D
:100830005D60046030BC7047048003400FB400B5B5
:1008400083B0049C074803F043FB3CB105A9204654
:10085000019103F06DF9044803F03AFB012003F025
:100860007FF900BFF4620210600A0610EFF31080F7
:1008700072B6064BD3E8CF1F01220029FAD1C3E894
:10088000412F0029F6D1BFF35F8F7047B7CA002010
:100890000023034AC2E88F3F80F31088704700BFEF
:1008A000B7CA0020F8B5EFF3108C72B60F4ED6E839
:1008B000CF5F0124002DFAD1C6E8454F002DF6D1B7
:1008C000BFF35F8F0124CF08C55D01F0070304FA71
:1008D00003F315EA030406D12B43C355C6E88F4F33
:1008E0008CF31088F8BD1046FFF7A8FFB7CA0020A8
:1008F000F8B5EFF3108C72B6204FD7E8CF5F012424
:10090000002DFAD1C7E8454F002DF6D1BFF35F8F18
:100910009A4222D80126D508455D02F0070406FA5E
:1009200004F4254200EBD20E0AD122E0D408055D82
:1009300002F0070406FA04F4254200EBD20E18D0A8
:1009400001329342F2D24FF0FF300023C7E88F3FCD
:100950008CF31088984207DBF8BD0023C7E88F3F6F
:100960008CF310884FF0FF300029F5D00698FFF780
:1009700065FF2C4310468EF80040E6E7B7CA00201A
:1009800070B4EFF3108672B60E4BD3E8CF4F01224E
:10099000002CFAD1C3E8442F002CF6D1BFF35F8FAF
:1009A0000124CD08425D01F0070104FA01F122EAB9
:1009B000010141550022C3E88F2F86F3108870BCD7
:1009C000704700BFB7CA0020044A1078431CDBB24E
:1009D000172B88BF10231370704700BFB81C00206E
:1009E00000B5064B83B00146009318221F2304482C
:1009F000FFF77EFF03B05DF804FB00BF0463021045
:100A0000E0780020024A136843F0005313607047F7
:100A100008E000E00021044B03F12002C3E88F1F2F
:100A200001339342FAD17047ACCA00204FF08033B3
:100A300030B40A480A490B4A0B4D0C4C03600B605A
:100A400013602B60236043614B6153616B61636191
:100A5000836230BC8B629362704700BF00E400E0A9
:100A600004E400E008E400E00CE400E010E400E04E
:100A7000012300F01F029340400941B1800000F1C2
:100A8000604000F56140C0F8803103607047024A61
:100A9000203042F82030704700E100E00123064A90
:100AA000410952F8212000F01F0003FA00F0104223
:100AB00014BF18460020704700E100E001224309FE
:100AC000044900F01F00403302FA00F041F823000F
:100AD000704700BF00E100E0054B10309A68054BFD
:100AE00052F82000C01A2F288CBF00200120704728
:100AF00000ED00E0BC1C0020F8B50D46EFF31087B8
:100B000072B6124ED6E8CF2F0123002AFAD1C6E8DA
:100B1000423F002AF6D1BFF35F8F0D4B00F1100466
:100B20009B680C4A53F82430934203D0994201D079
:100B300001F0FEF9064B9B6843F82450BFF35F8F2A
:100B40000023C6E88F3F87F31088F8BDB5CA0020A0
:100B500000ED00E01D0100102DE9F04F83B00746C5
:100B600015460191EFF3108A72B6DFF8E091D9E8EB
:100B7000CF2F0123002AFAD1C9E8423F002AF6D13B
:100B8000BFF35F8F6B4E96F90020002AC0F2AA8057
:100B9000694C02EB420304EB83039979674B317094
:100BA0009B68103753F8270002EB4206031B2F2BDC
:100BB00004EB86084FEA86062FD9614B984240F035
:100BC000AF80604BB21C2244043B9B1AC3F34A0320
:100BD0006FEAC3434FF421406FEAD3434BF6015110
:100BE000FF22A053A8F80230019B48F0010088F8CA
:100BF0000750C8F80830A8F8041088F806204F4BB2
:100C00009B6843F82700BFF35F8F0023C9E88F3F3D
:100C10008AF3108803B0BDE8F08F20F00101CB7992
:100C2000AB4237D84FF4214B4AF6AA20454BB21CB1
:100C3000A3F1040CA318ACEB0303321DDFF810C1C1
:100C400004EB020EC3F34A030A1F43EA0C03A2EBB0
:100C50000E0224F806B0C2F34A02A8F802303A4E57
:100C6000019B42EA0C02C8F80830A8F804200346A9
:100C70000A46121B524153431B0D88F8075088F84F
:100C8000063048F001000E60B9E79CF807C0AC459B
:100C90002DD9714691F9063003EB430C04EB8C0C13
:100CA000002BE646F1DA4BF6015C01F1040BA8F1EA
:100CB000040EAEEB0B0ECEF34A0E6FEACE4E6FEA89
:100CC000DE4EDFF884B08A71A1F804E044F806B083
:100CD00088F80630019BA8F804C088F80750C8F8C7
:100CE00008308CE701F024F996F9002050E7B1F8BC
:100CF00004C001F1040B5FEA4C5C14D46FF0070EE2
:100D00004FEA6C5C0CF1020CAEEB060E0BEB4C0CDC
:100D1000AEEB040EF444CCF34A0C4CF4604CC6E742
:100D200001F006F94DE70CF5FF1C0CF5FF5C0CF12A
:100D30001F0CE3E71DC90020BC1C002000ED00E0F3
:100D40001D010010EC1C002001488047B5CA00209E
:100D500000E0FFFF2DE9F04F83B0EFF3108972B68A
:100D6000754DD5E8CF2F0123002AFAD1C5E8423FBF
:100D7000002AF6D1BFF35F8F704B00F110079A681D
:100D80006F4B52F827409C4241D08C424DD06D4E63
:100D9000A31B2F2B3BD84FF0010A4FEA50184FEA04
:100DA000880808F1604808F56148D8F8003000F07C
:100DB0001F000AFA00FA0AEA030BC8F880A0BFF382
:100DC0005F8FEFF30580C0B288BB24F0010CDCF824
:100DD00008E0714500F0A6800B4671469E4603E090
:100DE00099688E452FD09C469CF9062002EB420361
:100DF000002A06EB8303F3DA73468B428E4668D0F3
:100E0000BBF1000F1CD0C8F880A1C8F800A04B4B64
:100E10009B6843F82740BFF35F8F0023C5E88F3FEF
:100E200089F3108803B0BDE8F08F1C46EFE78742D6
:100E3000CBD0CDE9000101F07BF8DDE90001C4E78A
:100E4000C8F880A0E3E702EB420206EB820292F9C7
:100E5000061000293EDB01EB410206EB820292F90B
:100E60000600D2F808E092F807C0987192F90600DF
:100E7000C3F808E0002883F807C04FEA410E3FDBC3
:100E80009088400504D500F5FF1000F5FF501F3095
:100E90006FF007024FF00C0C009204221CFB0122A1
:100EA0004015023002EB40026FF007003244C01AD6
:100EB0000244C2F34A0242F4604223480EEB010CA2
:100EC00006EB8C0690F800C09A80017086F806C088
:100ED00096E76346B8B9FF214BF601528CF806102D
:100EE000ACF8042018484AF6AA2290F800C0194627
:100EF000891B49414A43120D83F806C002707FE7FF
:100F00004BF60152D9E7114A1148D21A083AC2F3F6
:100F10000A316FEA01516FEA115140EA5202998099
:100F2000DA806DE79CF906106346002993DA002801
:100F3000E9D1034CD6E700BFB5CA002000ED00E0C0
:100F40001D010010BC1C00201DC90020F61C002043
:100F500000F8FFFF10B4FF2420F0030303F1604307
:100F600003F5644300F003001A68C000844022EADD
:100F70000402814011435DF8044B1960704700BFC3
:100F8000F0B5EFF30585EDB2EFF3108772B62649A1
:100F9000D1E8CF2F0123002AFAD1C1E8423F002A2D
:100FA000F6D1BFF35F8F214E40F0010CB2684AF6D4
:100FB000AA2352F825E004461D4AA41A644163435B
:100FC0001B0DE6455BB21BD092F906409C421CD03B
:100FD00092F912409C4223D092F91E409C4221D0AB
:100FE00092F92A409C4208BF03240FD0114A0024E2
:100FF000157813708571C1E88F4F87F31088F0BDA5
:10100000B2680D4C42F82540F0E70024FF264BF66D
:10101000015504EB440402EB840296719580E5E7E8
:101020000124F3E70224F1E7B5CA002000ED00E057
:10103000BC1C00201DC900201D01001001460248F3
:10104000C1F13301FFF79CBC28C9002000B5084B53
:1010500083B001460093002205230648FFF748FCB1
:101060000028A8BFC0F1330003B05DF804FB00BF47
:101070002063021028C9002070B504460E461546AC
:10108000FFF7A2FC0146204600F006F8A680E580A6
:10109000BFF35F8F70BD00BF014B19440160704703
:1010A000ACCA0020F8B5124D124EB5421FD22C46E4
:1010B0002368FF277BB1FFF787FC01462846FFF72F
:1010C000EBFFA780BFF35F8F0834B4420FD22368D1
:1010D0002546002BEFD1FFF777FC01462846FFF7A6
:1010E000DBFF2771BFF35F8F0834B442EFD3F8BD45
:1010F000AC2A0020B42A002010B50446FFF764FC97
:1011000001462046FFF7C8FFFF232371BFF35F8F1F
:1011100010BD00BF10B50446FFF756FC014620463F
:10112000FFF7BAFFFF23A380BFF35F8F10BD00BF9F
:1011300010B504460120FFF753FC034B1844206010
:10114000BFF35F8F10BD00BFACCA0020024B194433
:101150000160BFF35F8F7047ACCA00200E4B10B424
:101160001A68EFF3108172B6D2E8CF4F0120002C3D
:10117000FAD1C2E8440F002CF6D1BFF35F8F0022F2
:101180001B68C3E88F2F81F3108840BF0020002127
:101190005DF8044B704700BF5C8700202DE9F04FDD
:1011A00091B0EFF30583DBB2103B9A080EBFB7494D
:1011B000B74901220F46012103F00306B54B06EBA8
:1011C000820253F822B007F5415001FA06F3BA46FD
:1011D000CDE900450796069343603AE0BBF804303A
:1011E000190440F1BD809BF80630002B40F01581BA
:1011F000BBF90820002AC0F24481DBF8143002EB6E
:10120000420203EBC202D2E902677B1C08BFB6F1BF
:10121000FF3F0FD0079BDAF828000AEB830213691F
:10122000311A1B1A994204D3DAF8203006990B427E
:1012300000D11661504600F01DFC331A029367EB93
:1012400001030393DDE90234012B74F1000380F202
:101250001881BBF90860069B002ECAF83C30BDDB44
:10126000DBF8147006EB46030893504607EBC30304
:10127000D3E902891C46099300F0FCFBB0EB08009F
:1012800061EB090104900591DDE90412002972F176
:101290000001A3DBB8F1000F79F10001C0F2FE807C
:1012A0007D4B22699A42099B00F026815988BBF93F
:1012B000080089B241EA00405969904702460B464E
:1012C00052EA030100F0EA80002A73F1000180F283
:1012D0000881B8EB020069EB0301089B37F9338002
:1012E000099BB8F1000F9860D960FFF677AFDBF883
:1012F000143008EB480C03EBCC0CDCE90242041B75
:1013000061EB02020B920A94DDE90A45002C75F1AB
:101310000002FFF663AFBE46ABF80880DDE90C784B
:1013200009E09468071BD46861EB0408002F78F18A
:10133000000409DB9446BCF9009009EB4902B9F1BD
:10134000000F03EBC202ECDA089BCDE90C782EF813
:101350003390ACF80060BBF8043019043FF543AF9C
:10136000DBF81030EFF3108272B6D3E8CF0F012113
:101370000028FAD1C3E8401F0028F6D1BFF35F8FE1
:101380004FF6FF71BBF80480DBF81030ABF80410A7
:101390000FFA88F80021C3E88F1F82F31088884570
:1013A000FFF621AFDDE900450BF1080150468A4602
:1013B000DBF81460BBF9083008EB480906EBC902FA
:1013C000002BD446D2E9021E16DB5F46009004E0F3
:1013D00036F93B309446002B0CDB03EB430B06EB5A
:1013E000CB0290680C1AD0686EEB0005002C75F1EA
:1013F0000000EDDABB460098ACF8008036F9398081
:1014000026F83930B8F1000FD4DA9BF8063082465E
:10141000CDE90045002B3FF4EBAE00238BF80630FE
:10142000BBF908300BF1080E5A1C2AD0DDE9004543
:101430001A46DBF8146002E08646591C1CD003EB08
:10144000430106EBC10047889C463F0436F9313022
:10145000F2D54FF0FF374FF0FF389445C0E90278DE
:10146000EBD0AEF80030BBF80800624626F8310039
:10147000591CABF808C0E2D1002ACDE90045BFF6FF
:10148000BCAE40BF11B0BDE8F08F00BF00000B4004
:1014900000800B40C88600209D110010089CDBF8DE
:1014A000103037F83420ABF80820EFF3108272B612
:1014B000D3E8CF0F01210028FAD1C3E8401F00284C
:1014C000F6D1BFF35F8FBBF80230DBF8101027F8BE
:1014D00034300023ABF80260C1E88F3F82F31088FC
:1014E0007CE65046CDE90E2300F0C4FADDE90E2378
:1014F000801843EB0101F0E6596908460A690E912C
:1015000090470028CAD00E99D1E90023D8E600BF41
:101510002DE9F84F384C25692DB1BDE8F84F0A2167
:101520003648FFF7B9BD0321DFF8E8800E46404694
:1015300000F08EFAC4F80C80FFF746FA4FF0504BDB
:101540004FF6FF724FF00F0A2D4B267018442D4BAB
:10155000DBF800B0A36063692061A28084F801B069
:10156000A4F802A01A804FF00402A3F878204FF0EC
:101570000502A3F890204FF00602A3F8A8204FF030
:101580000702A3F8C0204FF00902A3F8F0204FF0A3
:101590000A02A3F808214FF00B02A3F820214FF014
:1015A0000C024FF0020E08274FF00D0C4FF001090E
:1015B0000E21A3F83821144A1D83A3F86060A3F814
:1015C00048E0A3F86811A3F83090A3F8D870A3F806
:1015D00050C13046C8F820700C49D460FFF78CFA2F
:1015E00049463046FFF744FA094B0A211F60034879
:1015F000BDE8F84FFFF750BD041D00205C870020B8
:10160000ACCA0020FFFF1000C88600209D1100100A
:1016100040200B4000000B4000487047041D002094
:101620002DE9F8439DF82870044615461E4657B923
:1016300000F028FAB5EB000866EB0109B8F1000FDD
:1016400079F1000356DB2369EFF3108072B6D3E81B
:10165000CF1F01220029FAD1C3E8412F0029F6D17A
:10166000BFF35F8FB4F90220676902EB4201002AE1
:101670004FEAC10E07EBC10102DB37F80E30638081
:101680004FF000082369C3E88F8F80F3108842452C
:1016900033DB4888089B0130C0F30E00012838BFB7
:1016A00001200B61099B48804B61C1E9025640EA69
:1016B00002402369EFF3108172B6D3E8CF6F0125A2
:1016C000002EFAD1C3E8465F002EF6D1BFF35F8F3C
:1016D000A588236927F80E50A280C3E88F8F81F375
:1016E00010880122E368217803F501538A405A608B
:1016F000BDE8F8833846BDE8F8834FF0FF30F7E7E0
:1017000001462DE9F04100699846EFF3108E72B65C
:10171000D0E8CF5F0124002DFAD1C0E8454F002D5D
:10172000F6D1BFF35F8FB1F902504E6905EB450466
:10173000E700002DA8BFF05B4FF0000CA8BF488069
:1017400006EBC4040869C0E88FCF8EF310886545A6
:1017500031DB6088069B0130C0F30E00012838BFE2
:1017600001202361079B60806361C4E9022840EA8D
:1017700005400B69EFF3108272B6D3E8CFEF012476
:10178000BEF1000FF9D1C3E84E4FBEF1000FF4D106
:10179000BFF35F8F8C880B69F4538D80C3E88FCFC4
:1017A00082F310880122CB68097803F501538A403F
:1017B0005A60BDE8F0814FF0FF30FAE74289B2EBA2
:1017C000214F37DD42690B1403EB430302EBC303E4
:1017D00070B40269EFF3108472B6D2E8CF6F0125BE
:1017E000002EFAD1C2E8465F002EF6D1BFF35F8F1C
:1017F0005A8889B292B28A4207D003690020C3E8AE
:101800008F0F84F3108870BC704742F400425A80F6
:101810000123002201698371C1E88F2F84F31088AE
:10182000C268017802F5015203FA01F1184670BC52
:101830005160704700207047407870472DE9F04FA5
:10184000831F85B0029341F1FF330393DDE9023436
:10185000A14208BF984206460F4603D20023002447
:10186000CDE9023400F00EF9DDE90245B4EB000ADF
:1018700065EB010BBAF1010F7BF1000306DA30468C
:10188000394605B0BDE8F04F00F03AB900F0FAF87B
:10189000DDE90245B4EB000865EB0109B8F1000F82
:1018A00079F100030ADB0022194B1A48CDE9003216
:1018B000DDE90223FFF724FF0028E0DBDDE9023445
:1018C0004FF0000C25461C461348144A436A9D42BB
:1018D00004D8816AA142D2D29D42D0D11368EFF3DD
:1018E000108172B6D3E8CF8F5FF0010EB8F1000F10
:1018F000F8D1C3E848EFB8F1000FF3D1BFF35F8F21
:101900001368C3E88FCF81F3108820BFDEE700BFE4
:101910005D110010041D002000000B405C870020BA
:10192000F8B504460D4600F0ADF8261845EB010762
:10193000002E77F10003BCBF4FF0FF366FF0004779
:1019400030463946BDE8F840FFF778BF10B5044689
:1019500000F098F84FF47A73E3FB0401BDE81040FF
:10196000002871F10003BCBF4FF0FF306FF0004161
:10197000FFF764BF2DE9F04F07460E4685B0EFF341
:101980000584E4B23CB12F4B586A88421FD2002034
:1019900005B0BDE8F08F2C4DD5F80C8095F800907F
:1019A000404600F067F809F1040358F823200023AB
:1019B000B7EB000AA2EB000266EB010B92457BEB52
:1019C000030311DB20BF1F4B586A8642DFD89B6A96
:1019D000BB4203D3012005B0BDE8F08F801B18BFC8
:1019E000012005B0BDE8F08F00F04CF83B1A0293DF
:1019F00066EB01030393DDE90223002A73F1000380
:101A000013DB124B284600933A4633460194FFF706
:101A100077FE011E09DD0B4B5A6A96420FD89B6A6E
:101A2000BB420AD30848FFF7C9FE064B586A8642F4
:101A3000ADD89B6ABB42CDD2D0E79642F2D120BF4F
:101A4000F0E700BF00000B40041D00205D110010F6
:101A500010B4054B054C064AA04214BF1846581C4A
:101A60005DF8044BFEF71EBFE478002000800B40B9
:101A700048630210416A0B46826A416A8B42FAD17E
:101A800010467047044A1346516A0A46986A596AD2
:101A90009142FAD1704700BF00000B402DE9F003DE
:101AA00004460D46154B1A465B6A1946906A536AFE
:101AB0008B42FAD122186B414FF000084FF0000919
:101AC00024BF4FF001084FF0000958EA090118BF80
:101AD0004FF0FF33104618BF184608494A6A9A4229
:101AE000FCD39A4207D1054A02E0516A994202D1D9
:101AF000916A8142F9D3BDE8F003704700000B40C2
:101B0000074A536A9942FCD8994207D1044B02E034
:101B10005A6A914202D19A6A8242F9D3704700BF51
:101B200000000B40F8B5054606200E4600F0D0F840
:101B3000002838D0304A314895420CBF4FF000623F
:101B40004FF080622E4B2F4902601A600C6832EA17
:101B50000404FBD1062000F0BBF8C000B0FBF6F691
:101B60000136F30920D1402701226A62AB622E6B55
:101B7000F30722D42B46002253F82C1F062003F52E
:101B8000805422602E6300F0A3F840F2013103225A
:101B90008000B0FBF7F0EB6A83F0700303F07E0384
:101BA00023602963AA64F8BD4FF6FE7293421BD9E5
:101BB00023464FF6FF72144FD7E740F2013205F586
:101BC00040531A636B6AAC6A062004EB831400F07E
:101BD0007FF80E4BA402A3FB0023DB0AB4FBF3F057
:101BE0000021FFF75BFFC5E7C6F345061A4606EB83
:101BF00083173346B9E700BF00800740002002404A
:101C00000030024008000240C0FF3F00757B2B8F70
:101C1000F0B500EB4004A40004F1804404F58034E6
:101C20006568061FB5F5803F38BF4FF48035F6B2C2
:101C300038BF6560012E964628D94FF4006C234FBB
:101C400004F54055C5F800C057F82050ADB92568D7
:101C500004F5805C85EA4E1202F0E002012ECCF819
:101C6000002026D94FF400614FF4803247F820302D
:101C700004F5005319606260F0BD7A69B2FBF5F5B6
:101C8000013505EB4505033DFDD2E0E70129D4D13F
:101C9000032604F540552E60A568EA07FCD52568A3
:101CA00004F5805C85EA4E1202F0E002074FCCF8A2
:101CB0000020012522688D40514001F00301CCF83D
:101CC0000010A2682A42FCD0CCE700BFFC780020BC
:101CD000014B53F820007047FC78002070B41E4D73
:101CE000039CB5FBF1F5B2FBF5F205682403002D6A
:101CF00044EA034320DB194D194EA8420CBF4FF4B0
:101D000000454FF48045174C3560A6F5FF56183E48
:101D10002560346835EA0404FBD1212500F54054E0
:101D200004340160826025600268002AFCDA08221F
:101D3000C360226070BC7047046804F03F048C42AA
:101D4000D9D18468C4F30B049442D4D1C46804F498
:101D5000EE249C42CFD1EDE7001BB7000080054088
:101D6000002002400030024030B44FF080441D4B50
:101D70001C60E0B11C4C40F001001C4DA3F5405329
:101D80004440DD611C62596298624FF080454FF01B
:101D9000E061144B1648174C1D60046019604AB985
:101DA00030BC4FF00042A3F580531A607047124BCD
:101DB000D861EAE74FF47A7303FB02F2B2F1807F55
:101DC00009D20E4B1A604FF0804130BC0A480C4BD0
:101DD0004260196070476FF07F4308491A460B60F4
:101DE000F1E700BF00B00D402D3FF84FD3C007B062
:101DF00008A00140F3FFFF0100800D407086002025
:101E000000A00D40012300EB4000800000F1804065
:101E100000F5841041600360704700BF10B51624C0
:101E200082B00B462488002141E800F1CDE900038F
:101E30004B0254BF1021042144F25220A047DDE997
:101E4000002304460A214FF48170A44602B0BDE885
:101E50001040604716231B88002242E800F252021D
:101E600001D4102118470421184700BF08B50B46BC
:101E7000011E02DB22B143F030031846FFF7CEFF0C
:101E800043F02003F9E700BF162330B51A88044653
:101E900087B0002343E800F35B0254BF1021042104
:101EA00045F24730904710220346052101A8984784
:101EB000052802D0002007B030BD02AD0FCD206054
:101EC00001206160A260E36007B030BD034A13687F
:101ED000002BFCD0BFF35F8F704700BF28080E4077
:101EE0000021044B044ABFF35F8F43F8041B934265
:101EF000F9D170470C080E402C080E40084B30B446
:101F00004FF42A654FF48D741A46064906481D6041
:101F1000DC6008605368002BFCDA30BC704700BFFF
:101F20000080044000A0044000B0FA00704700BFE9
:101F300008B50148FEF782FC6C63021038B5084D05
:101F4000084B9D420BD2013B5B1B23F00303043380
:101F50002C461D4454F8043B9847AC42FAD138BD96
:101F60002862021068620210074B30B41946074C11
:101F7000074D0848084A25600360136831EA0303E7
:101F8000FBD130BC704700BFF6FFF30300200240D6
:101F90007F3BEFEF0030024008000240044BDB6C57
:101FA000B3F5004F03D14FF48022024B1A60704703
:101FB000000011504C2011504EF6885303F160433D
:101FC0001968034A0A431A6010EE3004704700BFD4
:101FD000030330006FF06041044B054A1960136839
:101FE000DB4333F06043FAD1704700BF003002405A
:101FF0000800024010B545F25320FFF72BFFBDE863
:10200000104003460420184710B545F25320FFF74F
:1020100021FFBDE81040034601201847FEF7FABC37
:1020200010B5054B054C18464FF48872A16822F094
:102030006FF9A06010BD00BF0000002000ED00E0BF
:10204000002370B52C4C82B0C4F88430FFF756FFE3
:1020500001212246294B1960536C012BFCD103212D
:10206000274A254B11609C6B012CFCD105250226CB
:102070002B462146234A24480096FFF72FFE2B4685
:102080002146224A22480095FFF728FE31460022C9
:102090000420204BFFF7BCFD2846214600221E4BA2
:1020A000FFF7B6FD0022082011461C4BFFF7B0FDDC
:1020B000002209201146194BFFF7AAFD0022062035
:1020C0001146154BFFF7A4FD0022134B11460720C4
:1020D000FFF79EFD0420FFF7FBFD0024104DA5FB3C
:1020E0000035AD0CE0B229460134FFF78BFE062C1B
:1020F000F8D102B070BD00BF000001403C3001408B
:1021000030300140002F685900000540008C8647A0
:1021100000800540001BB70080D1F008006CDC0295
:1021200083DE1B4386B003B451FC0804CDE90201F1
:1021300051FC0904CDE9040151EC0A04CDE9060182
:1021400003BCF047BDE800504EEC00C4BDE80050B1
:102150004EEC01C4BDE800504EEC02C400BD0000CE
:1021600000B5FFF7DFFF02E010FE30F4F8D441ECD9
:10217000100443EC112400EE010410EE010480EE83
:10218000200451EC1004704700B5FFF7CBFF02E0CC
:1021900010FE30F4F8D441EC100443EC112400EEAE
:1021A000010410EE210480EE200451EC300470474D
:1021B00000B5FFF7B7FF02E010FE30F4F8D410B519
:1021C00041EC100443EC112451EC040453EC0524BD
:1021D000A0FB024C5FF0000EE0FB03CEE1FB02CE61
:1021E0004CEC20440024E1FB03E444EC30E480EEBA
:1021F000200451EC5004BDE81040704700B5FFF7D3
:1022000091FF02E010FE30F4F8D441EC100443ECEE
:10221000112451EC2104A0FB01126FEA820252FB4F
:10222000100052FB12F252FB1000A0EBD07C53ECDA
:1022300004245CFB13F153EC1524A1FB022001FBE9
:10224000030053EC4424A2EB000050FB1CF24FEAC5
:10225000111312EB017043EBE27140EA515020EA96
:10226000915020F0070053EC7524A0FB023C53EC86
:10227000752400FB03CC01FB02CC53EC0424ACEB33
:10228000824C40EA5C70A0F1010041EC400480EE19
:10229000200451EC7004704700B5FFF743FF02E0E3
:1022A00010FE30F4F8D440EC700400EE010410EE9F
:1022B000210480EE200451EC3004704700B5FFF794
:1022C00031FF02E010FE30F4F8D440EC600400EE80
:1022D000010410EE210480EE200451EC300470471C
:1022E00000B5FFF71FFF02E010FE30F4F8D441EC18
:1022F000800400EE010410EE010480EE400410EEB4
:102300001304704700B5FFF70DFF02E010FE30F434
:10231000F8D441EC800400EE010410EE010480EEDC
:10232000400410EE3304704700B5FFF7FBFE02E0F7
:1023300010FE30F4F8D441EC100443EC112400EE0C
:10234000010410EE3004C0F30070704700B5FFF7D1
:10235000E9FE02E010FE30F4F8D443EC102441EC26
:10236000110400EE010410EE30F48CBF01200020B7
:10237000704700BF00B5FFF7D5FE02E010FE30F455
:10238000F8D443EC102441EC110400EE010410EEEB
:1023900030F42CBF01200020704700BF00B5FFF7CC
:1023A000C1FE02E010FE30F4F8D441EC100443EC1E
:1023B000112400EE010410EE30F42CBF01200020A7
:1023C000704700BF00B5FFF7ADFE02E010FE30F42D
:1023D000F8D441EC100443EC112400EE010410EE9B
:1023E00030F48CBF01200020704700BF10B50446B8
:1023F00021F044FC28B10346034A2344934200D809
:1024000010BD0248FEF71AFA000008207863021097
:1024100038B505460C4621F037FB04FB05F428B11E
:102420000346044A2344934200D838BD0248FEF7CD
:1024300005FA00BF000008207863021010B50C46B2
:1024400022F0CAF820B1044A0119914200D810BD07
:102450000248FEF7F3F900BF00000820786302107D
:1024600021F014BC10B4EFF3108272B60A4BD3E81B
:10247000CF4F0121002CFAD1C3E8441F002CF6D124
:10248000BFF35F8F0024D0E90001C3E88F4F82F3D0
:1024900010885DF8044B7047B9CA002070B4144628
:1024A0001D46EFF3108272B60A4BD3E8CF6F0121BD
:1024B000002EFAD1C3E8461F002EF6D1BFF35F8F7E
:1024C0000021C0E90045C3E88F1F82F3108870BC6B
:1024D000704700BFB9CA0020F0B414461D46EFF3A0
:1024E000108272B60C4BD3E8CF6F0121002EFAD1C7
:1024F000C3E8461F002EF6D1BFF35F8F0021D0E95D
:102500000067C0E90045C3E88F1F82F3108830469A
:102510003946F0BC704700BFB9CA00209A4238BFA4
:1025200088547047704700BF2DE9F84F9A460D9BBD
:1025300017469A0705468B46DDF8288011D1DDE95C
:102540000B3293420DD213463C460B9A9E1A3E44E0
:1025500022465346594620200134A847B442F7D1B9
:1025600000E03E460B9B73B108EB030406EB040945
:10257000A9EB040214F8010D53465946A8474445F7
:10258000F6D10B9B1E440D9B9B0719D50C9BF41B8E
:10259000A34215D99846E2195346594620200134E2
:1025A000A8474445F7D30C9B0C9A013B3B44C7F129
:1025B00001079B1B3744BA4238BF002301361E4433
:1025C0003046BDE8F88F00BF2DE9F04F0F9F9DF812
:1025D0002C90BD070E9EDDE909E4DDE90C8C2AD4C0
:1025E000002E69D1644507F0010B80F0C5801F2CD7
:1025F00088BF202400F2C080651E4FF0300A754469
:1026000001E0202C04D00134A44505F801AFF8D82E
:10261000BBF1000F0FD0B4420DD21F2C5DD8651E48
:102620004FF0300A754401E0202C56D00134B442FA
:1026300005F801AFF8D1FD0630D57D0557D4002C43
:1026400051D1B8F1100F7CD0B8F1020F00F08F809B
:1026500030248EF800400124B9F1000F23D02D253D
:102660000EF804500134CDE90B67CDE909E4BDE86B
:10267000F04FFFF759BFBD066AD4202CF3D00EEB04
:10268000040C013478258CF80050202CEBD04FF04E
:10269000300C0EEB040585F800C00134202CE2D08C
:1026A000B9F1000FDBD17D0733D43D07DBD5202501
:1026B0000EF804500134D6E717F0010B23D0B9F11E
:1026C000000F32D117F00C0F2FD16445A3D21F2C6D
:1026D00092D9202E01D82024ADE7FD064FF020042A
:1026E000C1D57D0503D4A44521D0A6421FD0B8F1A1
:1026F000100FC0D0B8F1020FC7D1202CB3D00EEB11
:102700000405013447E0644595D21F2C7FF674AF71
:10271000E1E72B250EF804500134CDE90B67CDE934
:1027200009E4BDE8F04FFFF7FFBE013ECDE7651EAF
:1027300087D0B8F1100F24D0B8F1020F2AD02C4660
:10274000A5E7BC060ED478248EF8004001249EE74D
:10275000202C88D04FF0580C0EEB040585F800C0F3
:10276000013492E758248EF8004001248FE7622458
:102770008EF8004001248AE7BBF1000F08BF002655
:1027800059E717F0200FA4F10204E3D10EEB040C7B
:102790002C4677E775444FF0620C85F800C074E76B
:1027A00000B9704701F050BB10B1D1E900311847B2
:1027B000704700BF000000002DE9F04F2DED048BA5
:1027C00097B0DDE9246780468A4691469B463046AD
:1027D000394632463B46FFF7ABFD002840F0EA8021
:1027E0004FF0FF32304639467D4BFFF7EFFD0028B2
:1027F00040F0E0804FF0FF326FF4801330463946EE
:10280000FFF7A8FD002840F0D580002200233046C5
:102810003946FFF79FFD002840F0D381CDE90867D6
:10282000DDE90845289B13F480630C93269B08BFC1
:102830000623269354EA050340F0D680289B13F420
:10284000006300F0B8810023002400250A93269B32
:1028500019460A9B99421A46C9BF0A460023D01A54
:1028600000F1FF3326930023289A0B9342F48062F1
:1028700028920A93279B19460B9B99421A468ABFB6
:102880000A460023D31A0C93289B13F002030D93DE
:1028900005D00B9B002B0C9B18BF00230C930A9BAD
:1028A0003BB1DDE9080122462B46FFF7ABFCCDE941
:1028B00008010022002330463946FFF74BFD30B1B6
:1028C000DDE90801024601F10043CDE908239DED51
:1028D000087B0C9A289B0392269A23F400630292A9
:1028E00004938DED007B5B464A465146404600F01E
:1028F0009BF90B9E0446002E6BD0289B224613F0BA
:10290000200F14BF452065205B465146C0470A99F9
:102910000DF1380E00290B46B8BF4B42C90FF446E3
:1029200000253048621C013E089101E0202D0FD0A7
:102930001F46A0FB0341C90801EB8104A3EB44033C
:102940003033092F0CF8013B05F101050B46EDD89A
:10295000052000210A23089CCDE90331CDE901546B
:102960005B460690514640460596CDF800E0FFF7DD
:102970002BFE0D9B044663B3279BA0EB0905AB42DE
:1029800027D91E4609EB05025B465146202001353A
:10299000C047AE42F6D8279B09F1FF311944279A68
:1029A000C9F10103091B23449A4238BF00210134B5
:1029B0000C440EE0289B4A460493279B5146039300
:1029C000269B40460293CDE900675B4600F02CF958
:1029D0000446204617B0BDEC048BBDE8F08F00BF65
:1029E000FFFFEF7FCDCCCCCCC5F30A50A0F2FF3077
:1029F000FFF756FC88A3D3E90023FFF7DDFB88A38C
:102A0000D3E90023FFF7B0FB41EC170B2046C5F3D9
:102A1000130444F07F510022794B41F4401155ECEE
:102A2000174BFFF7B5FB6AA3D3E90023FFF7C4FBFD
:102A300002460B4620462946FFF796FBFFF754FC5B
:102A40000A90FFF72DFC64A3D3E9002304460D464A
:102A5000FFF7B2FB00226B4BFFF786FBFFF744FC4E
:102A60005FA3D3E90023844629462046CDF82CC035
:102A7000FFF7A2FB04460B980D46FFF711FC5AA383
:102A8000D3E90023FFF798FB02460B462046294670
:102A9000FFF77EFB02460B4604460D46FFF78CFB14
:102AA000224641EC190B2B4620462946FFF75CFBDA
:102AB000002241EC180B544B51EC190BFFF7A2FB11
:102AC0000022524BFFF750FB02460B4651EC190B0C
:102AD000FFF798FB00224E4BFFF746FB02460B46E2
:102AE00051EC190BFFF78EFB41EC170B22462B46DE
:102AF00000204FF0804155EC174BFFF749FB024691
:102B00000B4620462946FFF72FFB02460B4651ECA9
:102B1000180BFFF777FB00223E4BFFF725FB0B9CC2
:102B2000002204F2FF342305FFF746FB04460D465E
:102B3000DDE9080122462B46FFF70CFC00282ED1C8
:102B4000204629460A9B6333C72B34BF0423052341
:102B50000B93289B1B057FF58DAE50EA01033FF4D4
:102B600076AE23A3D3E90023DDE90801FFF71AFCC1
:102B700048B121A3D3E90023DDE90801FFF7EAFB0F
:102B800000287FF464AE269B002B3FF473AE0C9BB1
:102B9000002B3FF46FAE269B013B26936AE620464E
:102BA00029461A4B0022FFF72DFB0A9B0446013BE6
:102BB0000D460A93C6E70A930423002400250B93CD
:102BC00058E607F100430896099329E6AFF3008021
:102BD00061436F63A787D23F71A379094F930A407E
:102BE0001655B5BBB16B0240EF39FAFE422EE63FF7
:102BF0002D431CEBE2361A3F0000000080842E417A
:102C00000000F83F0000E03F00002C40000024409E
:102C1000000018400000F03FFB799F501344D33F61
:102C2000B3C8608B288AC63F2DE9F04F2DED028B8B
:102C300086468C461C46154695B0DDE92067304631
:102C4000394632463B46CDE90954CDE907ECFFF75A
:102C50006FFB229C002840F0DD814FF0FF326FF4C3
:102C6000801330463946FFF775FB002840F010818D
:102C70004FF0FF3230463946C34BFFF7A7FB002821
:102C800040F0DF80BCA3D3E9002330463946FFF78C
:102C90009DFB002840F0C380B9A3D3E90023304650
:102CA0003946FFF757FB002840F0B9800022002387
:102CB00030463946FFF74EFB002840F0DE800B908F
:102CC000249B302213F4806F08BF06240CABA2466D
:102CD000A4F1200106E00AF1FF3A514503F8012B67
:102CE00000F03B81BAF1090FA4EB0A05F3D839468D
:102CF0003046FFF7F9FAA54B044603EBCA0393ED00
:102D0000007BB0EE478AF0EE678AFFF7C9FA024609
:102D10000B4630463946FFF73BFA53EC182BFFF7CA
:102D20004BFA89468046FFF7F1FA8346FFF7CAFA65
:102D300002460B4640464946FFF72AFA0022944BCA
:102D400080468946FFF742FB002800F0F7800BF130
:102D5000010B5846FFF7B6FA02460B4651EC180B2A
:102D6000FFF70CFB10B14FF0000B0134BAF1000F6C
:102D700040F0A1802046FFF793FA02460B4630460A
:102D80003946FFF705FA0022814B06460F46FFF74A
:102D9000E1FA40B90022304639467D4BFFF716FB79
:102DA000002800F01A816A1E0CAB7A491A44202DC3
:102DB0004FEAE47300F09A8081FB0460C3EBA00348
:102DC00003EB8300A4EB4004303402F8014F0135DB
:102DD0001C46002BEBD1249B03F00303012B00F0D6
:102DE0001481202D09D00B9B002B00F0B8802D22E0
:102DF00014AB2B4403F8202C0135249BDDE907019B
:102E00000393239BCDE901530CAB0093DDE9092328
:102E1000FFF78AFB15B0BDEC028BBDE8F08F249B59
:102E2000CDE90067DDE907010493239BCDE9024367
:102E3000DDE90923FFF7C0FC15B0BDEC028BBDE84E
:102E4000F08F249B544C03F00403002B534B08BF1A
:102E50000325DDE907011CBF1C460425249A239B9A
:102E600003920293CDE90045DDE90923FFF75CFBFE
:102E700015B0BDEC028BBDE8F08F3B46324600201A
:102E80000021FFF785F9012306460F460B9317E74C
:102E90002A460425249B424C0393239BCDE90045FD
:102EA000DDE9070102930A9BFFF73EFB15B0BDEC7D
:102EB000028BBDE8F08F681E0CAB3A4F18440FE050
:102EC000A7FB0B32D20802EB8203ABEB4303303398
:102ED000BBF1090F00F8013F66D9B24693460D4693
:102EE000202D0AF1FF3605F10101E9D1249B03F001
:102EF0000303012B81D1239B002B3FF47EAF0B9B5F
:102F00001BB9249B13F00C0F02D0239B013B23938E
:102F1000239BAB427FF665AF202D0DD030226B1E78
:102F20000DEB02010B44239901358D4203F8012F6B
:102F30003FF457AF202DF7D120255EE740464946A4
:102F40000022134BFFF706FA00287FF40FAFBBF106
:102F5000000F4ED10BF1010B08E72025C7E6249B9B
:102F60005A073FD41B077FF548AF202214AB2B44F0
:102F700003F8202C013540E70000000065CDCD416D
:102F80000000000065CDCDC1FFFFEF7F406402105F
:102F90000000E03F67666666286402102C64021039
:102FA00038640210CDCCCCCC202927D00B466EB192
:102FB00030200DEB000215440133202B05F8010FE2
:102FC0002ED0DA430A4412EB0A0FF5D12E2114AAAF
:102FD0001A4402F8201C5D1CE5E6E1077FF5E3AE2C
:102FE0000134E0E62B2214AB2B4403F8202C0135EE
:102FF00003E71BF0010F3FF4B9AEABE7249B0D468E
:1030000003F00303012B7FF4F8AE239B002B3FF466
:10301000E8AE74E7249B2A46084C032503933CE75B
:10302000249A02F00302012A01D01D46E5E6239A04
:103030001D46002A7FF463AFDFE600BF3464021050
:103040002DE9F04F2DED028BB04F1C46B04DB14E27
:103050001B78B1F1000A9FB008BFBB46904618BF6D
:1030600083462A9F2E60002B00F00E834FF000094C
:1030700018460AE04A464346514609F1010901341F
:10308000D8472078002800F026812528F2D1002199
:10309000631C1C4613F8010BA0F12002102A0AD869
:1030A000DFE802F03C09093909090909090909366B
:1030B000093309093000A0F13003092B40F2ED80FB
:1030C0002A2800F0188100252E2800F0F580002322
:1030D0000993A0F16803122B2AD8DFE813F06D01E1
:1030E000290068012900220029002900290029005F
:1030F000290029002900D9002900290029002900D8
:103100002900D90041F00101C3E741F00201C0E705
:1031100041F00401BDE741F01001BAE741F00801B8
:10312000B7E760786C2800F0AA8241F4807101341E
:10313000A0F12503532B9DD801A252F823F000BF24
:10314000F933001075300010753000107530001024
:10315000753000107530001075300010753000109B
:10316000753000107530001075300010753000108B
:10317000753000107530001075300010753000107B
:10318000753000107530001075300010753000106B
:10319000753000107530001075300010753000105B
:1031A000753000107530001075300010753000104B
:1031B000753000107530001075300010753000103B
:1031C0003B350010C93300103B350010753000103E
:1031D000753000107530001075300010753000101B
:1031E000753000107530001075300010753000100B
:1031F00075300010753000107530001075300010FB
:103200007530001075300010753000101933001043
:1032100075300010753000107530001075300010DA
:1032200075300010753000107530001075300010CA
:103230007530001019330010D73400101933001006
:103240003B350010C93300103B35001075300010BD
:1032500019330010753000107530001075300010F3
:103260007530001075300010193300109B340010B9
:1032700075300010753000100D34001075300010DE
:10328000193300107530001075300010193300101C
:10329000607841F4807101344AE7002505EB85052B
:1032A00000EB450514F8010F303DA0F13003092B68
:1032B000F4D92E287FF40BAF607841F48061A0F13F
:1032C0003003092B04F1010240F220812A2800F08A
:1032D0002C811446FBE64C46C84501D808F1FF395D
:1032E00043464A4651460020D84720461FB0BDEC11
:1032F000028BBDE8F08F57F8045B6078002DBCBFEF
:1033000041F002016D420134DEE600BF25250010C8
:103310006886002041300010782800F05D81582830
:1033200000F0B5816F2800F06081622800F07A8398
:1033300021F010030C930A2369280D9340F0588163
:10334000490540F15D810C9B23F001030C93692832
:1033500000F05681642800F053810C9B13F4007038
:1033600040F0B18213F4807140F05F835E0657F83D
:10337000042B40F14C82D2B2002A40F07A820C98A1
:1033800020F010030C93430540F17382114616ABF5
:103390000A9300230C9A0191CDE90552099A0492EF
:1033A0000D9A03920A9A029300924A465BE1607872
:1033B00041F400710134BBE66078682800F05A815E
:1033C00041F080010134B3E6462808BF41F02001F6
:1033D000099BCDE903510737029327F00707F7E868
:1033E00002014A46CDE90001434651465846FFF7DF
:1033F0001BFC0134814644E64A4609F10105434677
:1034000051462520A9460134D8473AE63B4653F8B1
:10341000046B0E93099B3078002B00F0CC800028C1
:1034200000F046835F1E7A1C33460C92B71801E009
:10343000BB4205D013F8012F002AF9D19B1B0C9336
:1034400011F480630A9305D00C9B099A934228BF1C
:1034500013460C9311F002030D9300F02381002812
:1034600000F039810A9B002B00F0AB80099B4A4693
:103470004B441F4608E043465146D84716F8010F13
:1034800009F1010910B14A464F45F4D10D9B002BBB
:1034900040F021810E9F0134F3E557F8043B002BE7
:1034A0006BD041F0210016AA154600210A9202E0D5
:1034B00020296BD0134603F00F063246092E94BF25
:1034C000303237320F2B05F8012B01F101014FEAA1
:1034D0001312EDD85AE08E0740F10F8157F8040B14
:1034E00043464A465146C0B2D847012D09F101066C
:1034F00088BF4D4407D93246434651462020013605
:10350000D847AE42F7D1B1460134BAE5002303EB08
:10351000830300EB430312F8010F303BA0F13004AA
:10352000092CF4D914460993D3E557F8043BA07845
:1035300023EAE37309930234CBE500F0DF03472B62
:1035400004BF00F0FD0041F40061452808BF41F0D0
:103550002001099BCDE903510737029327F00707A4
:10356000F7E802014A46CDE9000143465146584674
:10357000FFF722F90134814683E521F010004D0563
:1035800040F021008FD5194616AB0A930822059208
:10359000099A00230492102203920A9A069001913C
:1035A000009202934A46434651465846FFF70CF8AC
:1035B0000134814665E56FF0010700287FF433AFE1
:1035C0003DE74A4643465146D84716F8010F09F1F0
:1035D00001090028F5D159E710230D9321F00C03C0
:1035E0004A050C937FF5B3AEADE608230D930C911D
:1035F000642818BF0C99F1D10C9B5A053FF5A3AE76
:103600000C9B13F4007040F0918013F4807140F033
:103610007C815E0600F1DF8013F0800F57F8043BD9
:1036200000F041821BB283EAE372A2EBE37292B232
:10363000D80F0E90002B40F0F2800C9820F0100371
:1036400040050C9340F1EB8016AB0A934A460C9B65
:10365000CDE90553099B04930D9B03930E9BCDE984
:1036600001130A9B0093434651465846FEF7ACFFB0
:10367000814649E7A07841F0C001023458E5A078BE
:1036800041F44071023453E51C46994624E621F08A
:103690000C0343F020030C9310230D934B053FF5CF
:1036A00052AE5AE60C9A954202F1010340F20482AE
:1036B00005EB0907BF1A4A4643465146202009F147
:1036C0000109D847B945F6D130786B1C0C93002816
:1036D0007FF4C8AEDEE60C9B4E469D427FF6DAAE26
:1036E00005EB0900A0EB0309324643465146202072
:1036F0000136D8474E45F7D1CCE6012D40F2DA81AC
:1037000009F1FF331D444A4643465146202009F142
:103710000109D847A945F6D157F8040B43462A4674
:103720005146C0B205F10109D847EDE6073727F049
:103730000707F7E80223002A1946CDE90A2373F1A7
:103740000003104667DB0B9BCDE91001D90F002366
:103750000E910D9908461946DDE90A2313433FD01F
:103760000C9BCDE9127913F0200F14BF372257229A
:1037700016AB08EE108ACDE91454DDE91045002699
:10378000CDF840B01F468046894693460A9303E031
:10379000202E17D004460D4642464B462046294669
:1037A00022F082FCD2B2092A02F1300388BF02EB78
:1037B0000B034D45DBB208BF444506F1010607F88F
:1037C000013BE5D218EE108ADDE91279DDE91454E7
:1037D000DDF840B00DE057F8043BDBB21A4627E7AE
:1037E0000C9A22F010030C935305B9D5002616ABA2
:1037F0000A930C9B4A46CDE90553099B04930D9B04
:1038000003930E9BCDE901630A9B00932BE71806F7
:1038100048BF92B2B0E5404261EB410193E70C9B97
:1038200007EE908A13F0200F16AB14BF4FF0370E3F
:103830004FF0570E9C460D980A9302E0202915D0B0
:103840003246B2FBF0F600FB16285FFA88F3B8F1B7
:10385000090F03F130088ABF73445FFA88F3DBB2C3
:10386000824201F101010CF8013BE7D217EE908A88
:10387000ECE60C9B07EE908A13F0200F16AB14BFFA
:103880004FF0370E4FF0570E9C460D980A9302E00A
:10389000202915D03246B2FBF0F600FB16285FFA5D
:1038A00088F3B8F1090F03F130088ABF73445FFA57
:1038B00088F3DBB2824201F101010CF8013BE7D24F
:1038C00017EE908A65E5073727F00707F7E8022328
:1038D000CDE90E2300220D9B11461846DDE90E238B
:1038E00013433AD10C9A22F010030C93530534D5AC
:1038F000002616AB0A930C9A0023CDE90552099ACB
:10390000019604920D9A03924CE53A4652F8043B14
:103910000E9283EAE372A2EBE3724FEAD37E002BAE
:1039200056D10C9921F010034F050C9350D516ABCE
:103930000A934A460C9B0190CDE90553099B0493D9
:103940000D9BCDE902E30A9B00934346514658463E
:10395000FEF73AFE0E9F8146D6E50C9BCDE9129507
:1039600013F0200F14BF3722572216AB08EE108A2F
:10397000109714940026DDE90E451F46CDF838B0A7
:103980008046894693460A9303E0202E17D00446CA
:103990000D4642464B462046294622F085FBD2B2D0
:1039A000092A02F1300388BF02EB0B034D45DBB25D
:1039B00008BF444506F1010607F8013BE5D218EEC1
:1039C000108ADDE91295109F149CDDF838B092E75B
:1039D0000C9B07EE908A13F0200F16AB14BF4FF02C
:1039E000370C4FF0570C1F460D990A9302E0202820
:1039F00015D03246B2FBF1F601FB16285FFA88F3C8
:103A0000B8F1090F03F130088ABF63445FFA88F305
:103A1000DBB28A4200F1010007F8013BE7D217EE62
:103A2000908A86E702230D93E1E53B4653F8042B89
:103A30000E93AAB90C9921F010034F050C930FD5E2
:103A400016AB0A9300230C9A0190CDE90552099A0E
:103A5000029304920D9A03920A9A00924A4674E7DE
:103A60000C9B0D9913F0200F16AB14BF4FF0370CC1
:103A70004FF0570C1F460A9302E02028E2D072460E
:103A8000B2FBF1FE01FB1E26F3B2092E03F1300654
:103A90008ABF6344F3B2DBB28A4200F1010007F847
:103AA000013BEAD2CEE783EAE372A2EBE372BFE521
:103AB0000C90C5E44D462FE60C9300287FF4D2AC61
:103AC000E8E400BF0CB410B584B006AC54F8043B75
:103AD0000A460094014604480394FFF7B1FA04B083
:103AE000BDE8104002B070471D25001030B50D46EE
:103AF000144683B0014600932A4623460248FFF746
:103B00009FFA03B030BD00BF1D25001030B505463B
:103B10000C4685B0009302A9134604484FF0FF32CB
:103B2000CDE90254FFF78CFA05B030BDA92700108B
:103B300010B5094B84B01C684CB1034600914FF09E
:103B4000FF3203A90548A047012004B010BD00F0D2
:103B5000BFF9204604B010BD68860020A1270010E0
:103B600000BEFDE7074A0346106838B10649034422
:103B70008B428CBF4FF0FF301360704703490846FB
:103B80001160F3E74082002000000820C8BE012039
:103B900050B910B40C46064B1146D3E90023204619
:103BA0005DF8044B00F0F6B84FF0FF30704700BFEF
:103BB00040630210431E012B09D810B51446084675
:103BC00001230022214600F069F8204610BD4FF085
:103BD000FF3070474FF0FF30704700BF4FF0FF30AD
:103BE000704700BF4FF0FF30704700BF02288CBF06
:103BF00000200120704700BF08B5FFF7B1FF00BFEC
:103C000038B5FEF79BF9084D084B9D420BD2013B9E
:103C10005B1B23F0030304332C461D4454F8043B80
:103C20009847AC42FAD138BD68620210786202103F
:103C300003680846114618470B682DE9F041802BB0
:103C40000C46064605D05A1C234422601E71BDE86E
:103C5000F0810E4B1D6895B10D4F01F1040801E094
:103C60002D6965B12A68002AFAD03B680BB1AB42D6
:103C7000F6D14046216890472D69002DF2D10023EE
:103C80000122234422601E71BDE8F081E4810020FE
:103C9000EC81002003680846114618472DE9F047DB
:103CA00082B00D4692461E460746FDF7EBFE002207
:103CB000324B10EB030841EB0209B8F1000F79F128
:103CC0000003BCBF4FF0FF386FF0004942464B463F
:103CD0002B4822F059FA6B1C804603D1384621F05C
:103CE00033F80546274B284A1C68284B002E14BF82
:103CF00016461E46FCB1DFF89890BAF1000F28D0A6
:103D00004FF00A0A01E02469ACB12368002BFAD015
:103D1000D9F800300BB1A342F5D120462A463946E6
:103D2000B047204601220DF107018DF807A0B047EA
:103D30002469002CE9D1B8F1000F18D1284602B04F
:103D4000BDE8F0872A4639462046B0472469002C52
:103D5000F1D02368002BF9D0D9F80030002BF1D036
:103D6000A342F3D12A4639462046B047EEE704483D
:103D700022F0BAF9284602B0BDE8F08740420F00B1
:103D8000AC2A0020E4810020953C0010313C00105A
:103D9000EC8100202DE9F04F07460E46984683B08F
:103DA000DFF860A0DFF860B0DFF860900192DAF829
:103DB000004014B911E024697CB1DBF800500DB16A
:103DC000A542F8D1A268002AF5D03146384690477E
:103DD0000028F0DD03B0BDE8F08FD9F8242090452D
:103DE0000BD8D9F82810019B994201D2904504D0F4
:103DF0006FF0010003B0BDE8F08F01200021FDF756
:103E00004DFED4E7E4810020EC81002000000B404F
:103E1000084A136823B90AE003F110021B6933B1A1
:103E20009842F9D129B9036913600161704701B162
:103E300010607047E481002008B500F08BF900F0B5
:103E4000CDFB012008BD00BFF0B583B005468DF85D
:103E50000700FDF717FE0022194BC61841EB0207B9
:103E6000002E77F10003BCBF4FF0FF366FF0004724
:103E700032463B46134822F087F9134B06461C682E
:103E80009CB1124F01E024697CB12368002BFAD069
:103E90003B680BB1A342F6D1204601220DF1070188
:103EA000FFF7F8FE2469002CEFD116B9284603B0BD
:103EB000F0BD044822F018F9284603B0F0BD00BF59
:103EC00040420F00AC2A0020E4810020EC81002059
:103ED00038B5044620F038FF012305461A4620462F
:103EE0002946FFF7DBFE084B1C682CB163682BB139
:103EF00098472469002CF9D1284638BD2469002C44
:103F0000F4D1284638BD00BFE48100202DE9F041FE
:103F1000A2B006468846FDF7B5FD0022274BC4181F
:103F200041EB0205002C75F10003BCBF4FF0FF34DC
:103F30006FF0004522462B46214822F025F9002447
:103F400043463246074601A91E480194FFF7DEFDAD
:103F5000019B06467BB91C4B1C682CB1636843B1BE
:103F600098472469002CF9D1FFB9304622B0BDE84A
:103F7000F0812469F1E7DFF85080D8F80050DDB116
:103F8000124C01E02D6965B12B68002BFAD0226834
:103F90000AB1AA42F6D1019902A898472D69002DCD
:103FA000F2D1D8F800400195D7E7054822F09CF8F7
:103FB000304622B0BDE8F0810195D5E740420F00C0
:103FC000AC2A0020393C0010E4810020EC81002064
:103FD0000FB400B583B004A951F8040B0191FFF7A9
:103FE00095FF03B05DF804EB04B0704700290FDDC6
:103FF000084B01381A6810B4441810F8011F93696F
:104000009B06FCD4A0421160F7D15DF8044B7047C9
:10401000704700BF90C80020002926DD10B4441E60
:1040200000201C4B1A689369DB0619D40130936990
:10403000DB06FCD41368814204F8013FF3D1164B30
:104040001B6853B150211346916353F8342F02F08B
:10405000380203F580531A60C8B15DF8044B70470D
:104060000D4B1B68002BEDD1F6E70B4B1B685BB1CA
:10407000084B50211A681346916353F8342F02F00D
:10408000380203F580531A606FF0020070476FF03A
:104090000200E2E790C80020D0780020054B1B68A2
:1040A00033B10021044A054812680068916318473B
:1040B000704700BFD078002090C80020D87800203A
:1040C000024B1A6893691B07FCD4704790C8002004
:1040D000F8B51B4F1B4D3E680446AE420CBF22256F
:1040E000212520B1184B0A46196889B1F8BD164F31
:1040F0003B68002BFAD00146B0632846FCF7B8FCB9
:1041000028461249FCF726FE114B3C601C60F8BDA6
:104110000F4E18600D4928463260FCF7EDFC012176
:104120002846FCF7A5FC3A6850211346916353F8E2
:10413000342F02F0380203F580531A60F8BD00BF37
:1041400090C8002000800740D07800209D400010DB
:10415000D878002038B50E480E4A0F4C0F4D104B42
:1041600000780221002022602D781B78FCF7A8FA45
:1041700002210120FCF7A4FA4FF4E1312068FDF799
:10418000D1FCBDE8384001210648FFF741BE00BF21
:104190008C0B06100000074090C80020900B061002
:1041A000940B06101C1D0020704700BF0022014B1D
:1041B0001A7070471EC900204B79FF2B0BD18879EC
:1041C00048B9CB79012B07D1082A05D98A78034B46
:1041D00009201A7070470020704700BF1EC90020D8
:1041E00001207047012908D110B5124B0C461B78ED
:1041F0009188994203D0002010BD01207047537868
:10420000012B08D0022BF6D1002164220846FDF7CD
:10421000ABFD204610BD5188CB054BBF4A0A4A0A68
:1042200010464FF0FF3002F0010201F07F01FDF770
:104230001DFE00BF1EC9002000487047F864021030
:10424000012907D15378012B02D19388072B03D082
:1042500000207047012070471146A623014A01F053
:1042600059BA00BF1C6502100346012201481A70AA
:10427000704700BFD864021008B50B68B3F5966F9D
:1042800000D008BD00224FF0FF301146FDF7EEFDD3
:10429000024A034B10601960704700BFD4780020B9
:1042A000DC780020184B70B51A68002A28D0EFF38C
:1042B000108172B6D2E8CF4F0120002CFAD1C2E8AB
:1042C000440F002CF6D1BFF35F8F00220F485960D6
:1042D00002701B68C3E88F2F81F31088002400252B
:1042E0000B4E3078FCF7DAFB20B90024002520467D
:1042F000294670BD3078FCF7E1FB2046294670BDA9
:104300004FF47A740025EBE7B486002021C9002021
:104310001FC90020014B1878FCF7D0BB1FC9002033
:10432000F8B5074600200E4601F0F6FAB8B30020B3
:1043300001F008FB98B3FDF7A5FB0022194BC41848
:1043400041EB0205002C75F10003BCBF4FF0FF34B8
:104350006FF0004522462B46134821F015FFF0B1BF
:10436000002001F0D9FA58B900214FF0FF3000F0D9
:1043700025FD6FF002040C4821F0B6FE2046F8BD82
:10438000002001F0DFFA0028EED032463946002046
:1043900001F0E4FA041E08BF6FF00204EBE76FF0CF
:1043A0000204EBE740420F00B887002038B5FDF764
:1043B00069FB0022104BC41841EB0205002C75F17B
:1043C0000003BCBF4FF0FF346FF0004522462B4680
:1043D0000A4821F0D9FE70B14FF0FF30002100F003
:1043E000EDFC002001F002FB0028F5D1BDE83840CB
:1043F000024821F079BE38BD40420F00B887002046
:104400002DE9F04F83B006460D46FDF73BFB002239
:10441000384B10EB030A41EB020BBAF1000F7BF1B2
:104420000003BCBF4FF0FF3A6FF0004B52465B46B3
:10443000314821F0A9FE10B903B0BDE8F08F00208B
:1044400001F06AFA00284AD0002D42DD00242B4FEB
:10445000A34613E00246002001F00CFB0021824637
:104460004FF0FF3000F0AAFC002001F0BFFAFDF78A
:1044700009FBC7E900015444A5422ADD002001F0F0
:104480001BFB2A1B9042A8BF104631198246002808
:10449000E0D101464FF0FF3000F090FC504601F0B3
:1044A000A5FA504601F038FA98B1504601F004FBE5
:1044B0000028E1D1FDF7E6FAD7E900320192104A6F
:1044C00013EB0208019A42EB0B09894508BF8045AE
:1044D000D2D2094803B0BDE8F04F21F005BE00205C
:1044E0000021064BC3E90001034803B0BDE8F04FCB
:1044F00021F0FABD40420F00B8870020587200201A
:1045000020A10700F0B5002185B02E4821F014FE4F
:1045100000BB2D4B1A68DAB1EFF3108172B6D2E806
:10452000CF7F0126002FFAD1C2E8476F002FF6D1C6
:10453000BFF35F8F4FF0010C244E1F683278596033
:10454000D2B286F800C0C7E88F0F81F31088CAB1D5
:1045500005B0F0BD00214FF0FF3000F02FFC00202F
:1045600001F0F0F90446174821F0BEFD002CEFD011
:10457000174B1B68002BEBD0164A106805B0BDE83E
:10458000F0401847FDF748F80646FDF77BFA10F5AE
:104590007A7441F10005002C75F10003BCBF4FF0A7
:1045A000FF346FF000454FF0010C00270A49224606
:1045B0002B463046CDE9017C0091FDF731F805B07E
:1045C000F0BD00BFB8870020B486002021C90020BC
:1045D000D4780020DC780020A54200104FF0504332
:1045E000F0B585B01C68FDF717F8FDF725F9A04276
:1045F00002D0002005B0F0BD00212A4B08461B78F0
:1046000001F09EFD28480368002B47D00120FCF7ED
:104610001DFD0346254C2649C0B22370FCF76CFAF9
:1046200020780121FCF724FA0E20FCF755FA40BB54
:10463000204B0025C3E90000FCF7EEFF0446FDF720
:1046400021FA10F57A7641F10007002E77F1000388
:10465000BCBF4FF0FF366FF000474FF0010C16491A
:1046600032463B462046CDE9015C0091FCF7D8FF7D
:10467000A842BEDB01211148FFF7CAFB012005B0AB
:10468000F0BD0120FCF7ACF901460A48FCF75EFDDD
:1046900000220E200A49FCF75FFAEBE7FCF72CFD3D
:1046A000B4E700BF980B0610B88700201FC9002090
:1046B00005450010B4860020A5420010301D0020E2
:1046C00015430010004870476466021000487047A8
:1046D0001066021038B51B4B04461A784AB174B9FB
:1046E00040F209424FF44173174D17486A802B80FE
:1046F00038BD1846112100F04BF8002CF0D0052CE5
:104700001DD8124B104D53F82410284600230139B0
:1047100003E0132B20F8022F0CD011F8012FDCB28C
:104720000133002AF5D1631C5B0043F44073064853
:104730002B80DDE74FF44A7303482B80D8E7002035
:1047400038BD00BF94C80020FC7C002078660210B1
:1047500000B545F247308BB0FDF77CFB01220346E4
:10476000092101A89847DDE90332044912BA1BBAAE
:10477000C1E900230BB05DF804FB00BF14870020E3
:104780000346024A03CA1860596070471487002024
:10479000013900F0A18010B4514A13781C119F2BED
:1047A0008CBF373430340129047000F08F8003F05F
:1047B0000F03092BCCBF373330330229437000F08D
:1047C000858053781C119F2B8CBF373430340329DC
:1047D00084707BD003F00F03092BCCBF3733303309
:1047E0000429C37072D093781C119F2B8CBF37346F
:1047F00030340529047169D003F00F03092BCCBFB5
:10480000373330330629437160D0D3781C119F2B86
:104810008CBF373430340729847157D003F00F032D
:10482000092BCCBF373330330829C3714ED01379ED
:104830001C119F2B8CBF373430340929047245D0AA
:1048400003F00F03092BCCBF373330330A294372EF
:104850003CD053791C119F2B8CBF373430340B293B
:10486000847233D003F00F03092BCCBF37333033BE
:104870000C29C3722AD093791C119F2B8CBF37341B
:1048800030340D29047321D003F00F03092BCCBF62
:10489000373330330E29437318D0D3791A119F2B35
:1048A0008CBF373230320F2982730FD003F00F03E1
:1048B000092BD4BF303337331029C37318BF1030DE
:1048C00004D000235DF8044B0370704700230844B4
:1048D0005DF8044B0370704700230370704700BFFE
:1048E00014870020F8B500F037F90C2340271A4D43
:1048F0001A4CAB67FF220E201949FCF72DF93A46F6
:10490000204600211FF0E4FD0126002380221548E7
:1049100015496670638003600B606284134A2783C5
:104920002787E376636084F8213084F83B30636244
:10493000A060A162E260E26221F0DEFB4FF0005471
:104940004FF480320A490B4B2E643046EC64C5F8B4
:104950009010DA64F8BD00BF0000115044820020BE
:10496000C10500208400105080001050000110503C
:1049700010D001000020115001210E20FCF778B862
:1049800000220248114600F007B900BF64820020EF
:10499000044B197021B14FF40032034BC3F890203F
:1049A000704700BF0FC90020002011500B785B0634
:1049B00002D14B78052B00D070474B88014ADBB2FF
:1049C0001360704700001150CB782DE9F04103F0DF
:1049D0000307012FC3F3010067D04FF0000C8C7860
:1049E000364D04F07F02560006EBD413898805EBA0
:1049F00043139C70E409C1F30A01D87684F00100E6
:104A00001983587083F803C09CBB04232C4803EB24
:104A1000C20303EB000805EB821ECEF8088043F8C2
:104A200000C0002A38D0274BD2001344CEF80430FF
:104A30003F31022F21F03F013AD0234A2348136827
:104A40003719194405EB471781421160FB6031D8D3
:104A5000344405EB4414E27E83F0A04383F48013D6
:104A600043EA8263626843F0004301201360BDE8BB
:104A7000F081134805EB821E00EBC20813B2CEF89A
:104A8000288040F833C03AB1D20002F1A04202F5CA
:104A90008012CEF82420CBE700220D4B05EB441406
:104AA00001206260E360BDE8F0810020BDE8F08194
:104AB0004900C2E7FDF73CFAFB68C9E744820020E1
:104AC000800010500400105098860020FF0F1050F6
:104AD0000001105021F010BB084610B501F07F0115
:104AE000054CC00900EB410004EB401011461A468A
:104AF00000F052F8012010BD4482002011F07F0325
:104B000008BF084A4FEAD11104BFC1F10200906604
:104B1000054801EB430100EB41104FF40062002116
:104B200021F072BB002011504482002030B411F0FB
:104B30007F0401D130BC704700226300054803EBBD
:104B4000D11100EB4113184630BC6FF40061DA70EC
:104B500021F05ABB448200204FF0805209480A4994
:104B600008B50A4B02600A601968C94311F0805108
:104B7000FAD14FF4805206481FF0AAFC0922054BD7
:104B80005A6708BD00200240003002400800024081
:104B90000000105000001150837E10B50446BBB9D0
:104BA000002001232161E082A282A37604F11B018F
:104BB000A01C21F0E1FA20B14FF40032084BC3F8F9
:104BC0009020204621F0A0FA28B10123237710BDC0
:104BD00021F00AFBE4E72046BDE8104021F0E4BAEA
:104BE000002011502DE9F04100241C4D8046234641
:104BF0001B4F2A781B4E0DE0336813EB441325D06E
:104C0000DB68404698472A780134E4B2511CA1423F
:104C1000234606DBA242A3EB0203EDD807EB4313C6
:104C2000EEE7114B5422184600211FF051FC4FF0C3
:104C3000FF340346051DC5E90144EC605C60202299
:104C4000BDE8F041FF2114301FF042BC074B1B6848
:104C5000DB0700D500BEBDE8F08100BF0EC9002013
:104C6000EC660210B072002060740020F0ED00E0ED
:104C7000704700BF704700BF00207047002070479A
:104C8000704700BF704700BF704700BF704700BF4C
:104C9000024B5878003818BF01207047607400201C
:104CA000024B1878C0F38000704700BF607400208A
:104CB0002DE9F047DFF8FC8098F80030FF2B4BD14E
:104CC0000D4600294CD00021542207462F481FF0E2
:104CD000FFFB00222E4E2F4B2F4C30461A70FCF754
:104CE0000BFA2E4B04F114001E60FCF721FA20464B
:104CF00001F0ECFD2A4A2B4B146023B12A48FFF740
:104D0000B3FA2A4B18600024274E2346DFF8A8A0E8
:104D10003278DFF898900EE0D9F8003013EB4413A6
:104D200011D05B687BB1984732780134E4B2511CF2
:104D3000A14223461CDBA242EED89B1A0AEB431386
:104D40005B68002BEFD11A4B1B68DA0700D500BE59
:104D500000252846BDE8F08701252846BDE8F087F4
:104D6000134B1B68DB07F3D500BE2846BDE8F08770
:104D70002946384688F80070FFF7B4FD054600283C
:104D8000EED03846FFF7F8FDE7E700BF607400207B
:104D90005874002010C90020441D0020B474002065
:104DA000B8740020694200100EC90020B0720020C3
:104DB000F0ED00E0601D0020EC6602102DE9F04FE0
:104DC000AD4F8BB03B78FF2B00F0EC80AB4CDFF8A5
:104DD000BC92DFF8C0A2DFF8C0B225686B69EFF3C0
:104DE000108272B6D3E8CF0F01210028FAD1C3E8B0
:104DF000401F0028F6D1BFF35F8FAA61284607A99C
:104E000001F0CEFB00236A69C2E88F3FAB6983F3F0
:104E10001088002800F0C6809DF81D30013B072B4C
:104E200000F29183DFE803F0A2AD8E9786360A0484
:104E3000089B002BD1D009989847CEE79DF8201009
:104E40008F4B01F07F0503EB450303EBD11393F880
:104E500034006FF3000083F8340093F834006FF3EC
:104E6000820083F83400002D00F09F80854A1B7D6E
:104E70001278934280F08E80DBF8002012EB43130F
:104E800000F08B809D699DF82120099B9DF81C00F6
:104E9000A847A2E77C4A1378002B7ED01378013B09
:104EA000DBB21370137803F0FF00002B95D1744D23
:104EB0009DF81C802B7843F001032B7095F834305B
:104EC00060F3000385F8343095F8343060F38203E2
:104ED00085F8343095F8353060F3000385F83530C7
:104EE00095F8353060F3820385F8353000F07AFCB0
:104EF0009DF8203003F06002602A0BD0402A60D079
:104F000003F01F03012B00F0C980022B00F0868004
:104F1000002B62D0D9F80030DD0700D500BE9DF827
:104F20001C000021FFF7EAFD80219DF81C00FFF71F
:104F3000E5FD52E7524B1B78D9077FF54EAFFFF7DF
:104F4000A5FE4AE74E4BDB78DA077FF546AF0898B7
:104F5000FFF790FE41E74A4B1A78D0077FF53DAF47
:104F60001878C0F3C000FFF78FFE36E79DF81C00ED
:104F7000FFF738FE00F02CFC414B9DF820209A7082
:104F80002BE79DF81C00FFF72DFE00F021FCFFF73A
:104F900079FE22E7501C98420FDA3C4B1B68DC0775
:104FA00000D500BE0BB0BDE8F08F099B9DF8212015
:104FB0009DF81C0000F02AFC0FE79B1A0AEB431334
:104FC00060E7334800F00EFC4046012108AAFFF7D5
:104FD00037F900287FF401AFA1E7202A00F0928181
:104FE000002A97D19DF82130092B93D801A252F8BD
:104FF00023F000BFA352001087520010154F00107D
:10500000C5520010154F00106D52001019520010BB
:10501000154F0010035200102B5100109DF8241062
:1050200011F0700F7FF476AF01F07F0C154805EB9F
:105030004C0303EBD1131E7D03784FEA4C00019023
:105040009E424FEAD11000905DD3581CB042C0F28E
:105050007681F61A0AEB4616002A00F07481706910
:1050600000F0C0FB40460121736908AA9847002858
:105070007FF4B3AE53E700BF601D0020B87400207A
:10508000607400200EC9002010C90020F0ED00E07F
:1050900041420010EC660210B07200209DF82430EE
:1050A0000F2B3FF63CAFCC4A2B441B791578AB4213
:1050B00034D36A1C9A42FFF632AF5B1B0AEB4315EE
:1050C000686900F08FFB012140466B6908AA984788
:1050D00000287FF482AE9DF8205015F060057FF423
:1050E0001EAF9DF821300A3B012B3FF618AF00F0B0
:1050F00079FB9DF821300A2B00F0F881404608A981
:1051000000F0EEFA69E6DBF8003003EB4616002A01
:1051100000F01981002E3FF402AFA0E7DBF8005049
:1051200015EB43153FF4FBAECAE79DF822206B78E0
:105130009A4200F055816B78002B40F0C3816A7071
:10514000002A00F04B81501EC0B2FFF7BFFA0028C2
:1051500000F067814378022B40F06381C27929789F
:10516000C2F340131B01C2F3801243EA421321F041
:10517000300213432B70438800F10901C3180193D7
:10518000CDF80C80019B8B4240F2AB814A780B2A10
:1051900000F0B6810123042A40F043814FF000085B
:1051A000019ACDF80080501A8B4A80B21278029092
:1051B00004931EE0DBF8006016EB481600F0318126
:1051C0003369029A03980591984708280246059981
:1051D00008F1010303D90298904280F006815FFA3A
:1051E00083F87D4BCDF800801A78531C984500F366
:1051F0001881009B9045A3EB0202DBD30AEB421619
:10520000DEE76D78404601230DF11A0208A98DF8FA
:105210001A5000F07FFAE0E5BDF82200030A5A1E9A
:10522000C0B20E2A3FF67BAE01A151F822F000BFBA
:105230004B540010E1520010875400101F4F001013
:105240001F4F001069540010E15200101F4F001052
:105250001F4F00101F4F00101F4F00101F4F001056
:105260001F4F00101F4F00103D54001008A800F001
:10527000BFFA40469DF82210FFF782FB2B7843F0DF
:1052800002032B70A9E5BDF82230012B7FF447AE55
:105290002B7840466FF3C30308A92B7000F020FA67
:1052A0009BE540462B789D0805F00205C3F34013AB
:1052B0001D4302230DF11A0208A9ADF81A5000F09F
:1052C00029FA8AE5BDF82230012B7FF428AE2B782D
:1052D000404643F0080308A92B7000F001FA7CE572
:1052E000022B00F01281FFF7C9FC024600283FF4B0
:1052F00016AE4046538808A900F00CFA00287FF447
:105300006CAD0CE69DF824300F2B3FF608AE324A08
:105310002B441B791578AB4228D2DBF8005015EBF3
:1053200043153FF4FCAD686900F05CFA404601218A
:105330006B6908AA984700287FF44FADEFE5002A73
:105340007FF4EDAD00269DF8212002F0FD03012B36
:1053500014D0002A7FF4DEAD019B009A2B44134445
:1053600093F834504046C5F34005A2E76A1C9A42C0
:10537000FFF6D5AD5B1B0AEB4315D4E7BDF8223031
:10538000ABB9012A00F087803878FFF7B7FB019BA3
:10539000009A2B44134493F8342042F0020283F81D
:1053A000342093F8342042F0010283F83420002E98
:1053B0003FF413AD706900F015FA7369012108AA72
:1053C00040469847002000F00DFA95F83530DE078A
:1053D0003FF503AD92E600BF0EC90020FFF752FC77
:1053E000404608A900F07CF9F7E4049B012B00F08B
:1053F000A480002B00F090808E780020029604E0BC
:10540000634586F8048040F28780029E064455FA80
:1054100086F696F804E00130BEF1FF0F5FFA80FCDB
:10542000EED0D9F80030DA0700D500BED9F8003048
:10543000DB0700D500BE00236B7070E5FEF7FCFEB5
:10544000024600287FF455AF69E5FFF73BF90246B5
:1054500000283FF45FAD4046122308A900F05AF936
:1054600000287FF4BAAC5AE5FFF706FC0246002894
:105470003FF455AD4046137808A900F04BF90028D9
:105480007FF4ABAC4BE5BDF82410FFF723F90246DF
:105490000028EFD143E538780293FFF747FB019BE3
:1054A0002B441A46009B1A4492F83410029B63F373
:1054B000410182F8341092F8341063F3000182F84D
:1054C000341074E7002140460092FFF761FA40462D
:1054D000FFF700FBAE784046FFF784FB009AAE7002
:1054E0002DE6DDF80C80FFF7CBFB79E74046012382
:1054F00008A90DF11A028DF81A5000F00BF96CE4AE
:105500000A78CB7811444A7845E6FFF7DFF802467F
:1055100000287FF4EEAEFDE443460E48049202916B
:1055200000F0BEFE0C4B049A02991B781144009ABD
:1055300001339342BFF626AE73E73069074EB0429F
:1055400008BF022358E7D9F80030DB077FF545ACE8
:1055500000BE42E4747400200EC90020B15B00104C
:105560002DE9F84F0A9F002A3CD00C461E461546EE
:105570004FF0000ADFF87890DFF8788018E02046D6
:1055800098F8021099F800B000F056FEE0B15846C5
:105590002146FFF719FAE0B1A2780AF1010AD3090E
:1055A00016BF0B9B3A701A702278AA45144419D082
:1055B0006278052A0DD1E17801F00301B14208D1EA
:1055C000A27812F0700FDAD0084B1B68DA0700D50A
:1055D00000BE064B1B68DB0702D40020BDE8F88F35
:1055E00000BEFAE70120BDE8F88F00BFF0ED00E053
:1055F000601D00206074002038B58B7813F0700FA8
:1056000006D00B4B1B68DB0700D500BE002038BD61
:105610000C46084A084B204691781D7800F00CFE95
:105620000028EED021462846BDE83840FFF7CCB927
:10563000F0ED00E060740020601D0020CB090548FB
:10564000054A343301F07F0103EB4101084411683E
:1056500000F0ACBD60740020B4740020CB09054894
:10566000054A343301F07F0103EB4101084411681E
:1056700000F0C6BD60740020B474002038B5154831
:1056800001F07F0500EB450000EBD11494F83400E5
:105690003034C00706D5104B1B68DA0700D500BEB2
:1056A000002038BD25790D4845F0010500782571A9
:1056B000FFF712FA0028F4D12379074A60F30003B8
:1056C0002371237960F3820323711368DB07E7D525
:1056D00000BE38BD60740020F0ED00E0601D0020C9
:1056E00070B40B4D0A462C460023064608684968EC
:1056F000AB6003C492F9002030469A42EB60A8BF29
:10570000802170BCB8BF19461A46FFF7B7BF00BF6B
:10571000407400202DE9F0412A4D0C462E4600270A
:10572000496880462068AA6003C6EF81E68882B097
:10573000B34228BF3346AB81B6B133B36AB395F9F0
:105740000010402B28BF402300292EDB39461E4A7B
:105750004046FFF793FFA0B91C4B1B68DB0720D521
:1057600000BE02B0BDE8F08194F900304046002B45
:10577000ACBF8021002133463246FFF77FFF00286F
:10578000EAD0012002B0BDE8F08195F900101A4678
:105790000029ACBF19468021DAE70C4B1B68D907FA
:1057A0000DD4002002B0BDE8F081114606481A462B
:1057B00001931EF0ADFD8021034A019BC8E700BEA6
:1057C0001046DFE74074002000740020F0ED00E098
:1057D0000022034BC3E90022C3E902221A61704789
:1057E00040740020014B1861704700BF40740020D6
:1057F00030B40246044C0025234600685168A56079
:10580000E56003C330BC704740740020F0B53F4CE6
:10581000C90925781F46B1EBD51F064683B01FD0B6
:105820003BB13B4B1B68DA0700D500BE002003B03C
:10583000F0BD2146FFF7BAF8236973B1224630461E
:1058400003219847012003B0F0BD01463046FFF721
:1058500055F930468021FFF751F9012003B0F0BD22
:1058600094F90020002A06DBA0680028DED01A4642
:1058700028491EF04DFDE589A168E2883D44ADB29E
:105880003944AA42E581A16016D03F2F14D9A289DC
:1058900094F90000531B9BB2402B28BF40230028E3
:1058A00025DB95424FF000012DD01A4A3046FFF714
:1058B000E5FE0028D1D114E023692BB10221304646
:1058C000124A98470028C0D0002394F9002030469F
:1058D0009A42ACBF802119461A46FFF7CFFE002836
:1058E000BBD10B4B1B68DB07A0D500BE9FE79542E1
:1058F00008D01A46074801931EF00AFD8021054A88
:10590000019BD3E780210022D0E700BF4074002034
:10591000F0ED00E00074002010B50446FFF7B8F980
:1059200008B9002010BDFFF7BBF90028F9D1C82342
:10593000034803FB0400007900F0010010BD00BF24
:1059400038730020C82208B5034B02FB003010302A
:1059500000F0FAFD08BD00BF387300202DE9F843C0
:105960004FF6FE754FF6FF73C826AA4288BF1A4647
:10597000DFF87480044606FB00851035284692B295
:1059800000F058FE0746FFF783F910B93846BDE826
:10599000F883FFF785F981460028F7D106FB0486D6
:1059A000F378002BF2D0284600F0E8FD3F28EDD92F
:1059B0004846F178FFF742FE0028E7D0284600F07D
:1059C000DDFD3F2808D9074A48464023F17802EB1D
:1059D000C412FFF753FED9E74846F178FFF73EFEC1
:1059E000D4E700BFB4720020387300202DE9F041E5
:1059F0000546FFF74DF910B90020BDE8F081FFF72B
:105A00004FF907460028F7D1C826DFF8648006FB67
:105A100005842434204600F097FD0028ECD006FBD6
:105A200005863846B178FFF709FE0028E4D0402209
:105A30000D4902EBC5150D442046294600F0FAFD3C
:105A4000044660B12A4638462346B178FFF716FE71
:105A500040B9064B1B68DB07CED500BECDE7B17859
:105A6000FFF7FCFD2046C8E7B4720020F0ED00E02F
:105A70003873002070B54FF6FF734FF6FE76C824DA
:105A8000B24288BF1A460B4B92B204FB0034243456
:105A90000546204600F07CFE034620461C4600F0EA
:105AA00053FD3F2801D8204670BD2846FFF79EFFD2
:105AB000204670BD38730020C82208B5034B02FB96
:105AC0000030243000F05AFD08BD00BF38730020BC
:105AD0000021F0B5194C83B0C82220460D461EF0B7
